{
  "contractName": "Auction",
  "abi": [
    {
      "inputs": [
        {
          "internalType": "address",
          "name": "_owner",
          "type": "address"
        },
        {
          "internalType": "string",
          "name": "_ipfsHash",
          "type": "string"
        },
        {
          "internalType": "uint256",
          "name": "_price",
          "type": "uint256"
        },
        {
          "internalType": "uint256",
          "name": "_step",
          "type": "uint256"
        },
        {
          "internalType": "bool",
          "name": "_promoted",
          "type": "bool"
        },
        {
          "internalType": "uint256",
          "name": "_startTime",
          "type": "uint256"
        },
        {
          "internalType": "uint256",
          "name": "_endTime",
          "type": "uint256"
        }
      ],
      "stateMutability": "nonpayable",
      "type": "constructor"
    },
    {
      "anonymous": false,
      "inputs": [
        {
          "indexed": false,
          "internalType": "address",
          "name": "_auction",
          "type": "address"
        }
      ],
      "name": "auctionCancelled",
      "type": "event"
    },
    {
      "anonymous": false,
      "inputs": [
        {
          "indexed": false,
          "internalType": "address",
          "name": "_auction",
          "type": "address"
        },
        {
          "indexed": false,
          "internalType": "address",
          "name": "_winner",
          "type": "address"
        },
        {
          "indexed": false,
          "internalType": "uint256",
          "name": "_finalPrice",
          "type": "uint256"
        }
      ],
      "name": "auctionFinished",
      "type": "event"
    },
    {
      "anonymous": false,
      "inputs": [
        {
          "indexed": false,
          "internalType": "address",
          "name": "_auction",
          "type": "address"
        },
        {
          "indexed": false,
          "internalType": "address",
          "name": "_bidder",
          "type": "address"
        },
        {
          "indexed": false,
          "internalType": "uint256",
          "name": "_highestBid",
          "type": "uint256"
        },
        {
          "indexed": false,
          "internalType": "uint256",
          "name": "_bidderCount",
          "type": "uint256"
        }
      ],
      "name": "bidCancelled",
      "type": "event"
    },
    {
      "anonymous": false,
      "inputs": [
        {
          "indexed": false,
          "internalType": "address",
          "name": "_auction",
          "type": "address"
        },
        {
          "indexed": false,
          "internalType": "address",
          "name": "_bidder",
          "type": "address"
        },
        {
          "indexed": false,
          "internalType": "uint256",
          "name": "_highestBid",
          "type": "uint256"
        },
        {
          "indexed": false,
          "internalType": "uint256",
          "name": "_bidderCount",
          "type": "uint256"
        }
      ],
      "name": "bidPlaced",
      "type": "event"
    },
    {
      "anonymous": false,
      "inputs": [
        {
          "indexed": false,
          "internalType": "address",
          "name": "_auction",
          "type": "address"
        },
        {
          "indexed": false,
          "internalType": "address",
          "name": "_bidder",
          "type": "address"
        },
        {
          "indexed": false,
          "internalType": "uint256",
          "name": "_anmout",
          "type": "uint256"
        }
      ],
      "name": "fundsWithdrawn",
      "type": "event"
    },
    {
      "inputs": [
        {
          "internalType": "address",
          "name": "",
          "type": "address"
        }
      ],
      "name": "activeBids",
      "outputs": [
        {
          "internalType": "uint256",
          "name": "",
          "type": "uint256"
        }
      ],
      "stateMutability": "view",
      "type": "function"
    },
    {
      "inputs": [],
      "name": "bidderCount",
      "outputs": [
        {
          "internalType": "uint256",
          "name": "",
          "type": "uint256"
        }
      ],
      "stateMutability": "view",
      "type": "function"
    },
    {
      "inputs": [],
      "name": "cancelled",
      "outputs": [
        {
          "internalType": "bool",
          "name": "",
          "type": "bool"
        }
      ],
      "stateMutability": "view",
      "type": "function"
    },
    {
      "inputs": [
        {
          "internalType": "address",
          "name": "",
          "type": "address"
        }
      ],
      "name": "cancelledBids",
      "outputs": [
        {
          "internalType": "uint256",
          "name": "",
          "type": "uint256"
        }
      ],
      "stateMutability": "view",
      "type": "function"
    },
    {
      "inputs": [],
      "name": "endTime",
      "outputs": [
        {
          "internalType": "uint256",
          "name": "",
          "type": "uint256"
        }
      ],
      "stateMutability": "view",
      "type": "function"
    },
    {
      "inputs": [],
      "name": "highestBid",
      "outputs": [
        {
          "internalType": "uint256",
          "name": "",
          "type": "uint256"
        }
      ],
      "stateMutability": "view",
      "type": "function"
    },
    {
      "inputs": [],
      "name": "highestBidder",
      "outputs": [
        {
          "internalType": "address",
          "name": "",
          "type": "address"
        }
      ],
      "stateMutability": "view",
      "type": "function"
    },
    {
      "inputs": [],
      "name": "ipfsHash",
      "outputs": [
        {
          "internalType": "string",
          "name": "",
          "type": "string"
        }
      ],
      "stateMutability": "view",
      "type": "function"
    },
    {
      "inputs": [],
      "name": "owner",
      "outputs": [
        {
          "internalType": "address",
          "name": "",
          "type": "address"
        }
      ],
      "stateMutability": "view",
      "type": "function"
    },
    {
      "inputs": [],
      "name": "promoted",
      "outputs": [
        {
          "internalType": "bool",
          "name": "",
          "type": "bool"
        }
      ],
      "stateMutability": "view",
      "type": "function"
    },
    {
      "inputs": [],
      "name": "startPrice",
      "outputs": [
        {
          "internalType": "uint256",
          "name": "",
          "type": "uint256"
        }
      ],
      "stateMutability": "view",
      "type": "function"
    },
    {
      "inputs": [],
      "name": "startTime",
      "outputs": [
        {
          "internalType": "uint256",
          "name": "",
          "type": "uint256"
        }
      ],
      "stateMutability": "view",
      "type": "function"
    },
    {
      "inputs": [],
      "name": "step",
      "outputs": [
        {
          "internalType": "uint256",
          "name": "",
          "type": "uint256"
        }
      ],
      "stateMutability": "view",
      "type": "function"
    },
    {
      "inputs": [],
      "name": "placeBid",
      "outputs": [],
      "stateMutability": "payable",
      "type": "function"
    },
    {
      "inputs": [],
      "name": "cancelBid",
      "outputs": [],
      "stateMutability": "payable",
      "type": "function"
    },
    {
      "inputs": [],
      "name": "cancelAuction",
      "outputs": [],
      "stateMutability": "nonpayable",
      "type": "function"
    },
    {
      "inputs": [],
      "name": "finishAuction",
      "outputs": [],
      "stateMutability": "nonpayable",
      "type": "function"
    },
    {
      "inputs": [],
      "name": "withdrawFunds",
      "outputs": [
        {
          "internalType": "bool",
          "name": "success",
          "type": "bool"
        }
      ],
      "stateMutability": "payable",
      "type": "function"
    },
    {
      "inputs": [],
      "name": "withdrawFundsCancelledBid",
      "outputs": [
        {
          "internalType": "bool",
          "name": "success",
          "type": "bool"
        }
      ],
      "stateMutability": "payable",
      "type": "function"
    }
  ],
  "bytecode": "0x60806040526000600760006101000a81548160ff021916908315150217905550600060085560006009556000600c553480156200003b57600080fd5b5060405162002bd138038062002bd1833981810160405281019062000061919062000366565b866000806101000a81548173ffffffffffffffffffffffffffffffffffffffff021916908373ffffffffffffffffffffffffffffffffffffffff1602179055508560019081620000b2919062000679565b50846002819055508360038190555082600460006101000a81548160ff02191690831515021790555081600581905550806006819055505050505050505062000760565b6000604051905090565b600080fd5b600080fd5b600073ffffffffffffffffffffffffffffffffffffffff82169050919050565b600062000137826200010a565b9050919050565b62000149816200012a565b81146200015557600080fd5b50565b60008151905062000169816200013e565b92915050565b600080fd5b600080fd5b6000601f19601f8301169050919050565b7f4e487b7100000000000000000000000000000000000000000000000000000000600052604160045260246000fd5b620001c48262000179565b810181811067ffffffffffffffff82111715620001e657620001e56200018a565b5b80604052505050565b6000620001fb620000f6565b9050620002098282620001b9565b919050565b600067ffffffffffffffff8211156200022c576200022b6200018a565b5b620002378262000179565b9050602081019050919050565b60005b838110156200026457808201518184015260208101905062000247565b60008484015250505050565b60006200028762000281846200020e565b620001ef565b905082815260208101848484011115620002a657620002a562000174565b5b620002b384828562000244565b509392505050565b600082601f830112620002d357620002d26200016f565b5b8151620002e584826020860162000270565b91505092915050565b6000819050919050565b6200030381620002ee565b81146200030f57600080fd5b50565b6000815190506200032381620002f8565b92915050565b60008115159050919050565b620003408162000329565b81146200034c57600080fd5b50565b600081519050620003608162000335565b92915050565b600080600080600080600060e0888a03121562000388576200038762000100565b5b6000620003988a828b0162000158565b975050602088015167ffffffffffffffff811115620003bc57620003bb62000105565b5b620003ca8a828b01620002bb565b9650506040620003dd8a828b0162000312565b9550506060620003f08a828b0162000312565b9450506080620004038a828b016200034f565b93505060a0620004168a828b0162000312565b92505060c0620004298a828b0162000312565b91505092959891949750929550565b600081519050919050565b7f4e487b7100000000000000000000000000000000000000000000000000000000600052602260045260246000fd5b600060028204905060018216806200048b57607f821691505b602082108103620004a157620004a062000443565b5b50919050565b60008190508160005260206000209050919050565b60006020601f8301049050919050565b600082821b905092915050565b6000600883026200050b7fffffffffffffffffffffffffffffffffffffffffffffffffffffffffffffffff82620004cc565b620005178683620004cc565b95508019841693508086168417925050509392505050565b6000819050919050565b60006200055a620005546200054e84620002ee565b6200052f565b620002ee565b9050919050565b6000819050919050565b620005768362000539565b6200058e620005858262000561565b848454620004d9565b825550505050565b600090565b620005a562000596565b620005b28184846200056b565b505050565b5b81811015620005da57620005ce6000826200059b565b600181019050620005b8565b5050565b601f8211156200062957620005f381620004a7565b620005fe84620004bc565b810160208510156200060e578190505b620006266200061d85620004bc565b830182620005b7565b50505b505050565b600082821c905092915050565b60006200064e600019846008026200062e565b1980831691505092915050565b60006200066983836200063b565b9150826002028217905092915050565b620006848262000438565b67ffffffffffffffff811115620006a0576200069f6200018a565b5b620006ac825462000472565b620006b9828285620005de565b600060209050601f831160018114620006f15760008415620006dc578287015190505b620006e885826200065b565b86555062000758565b601f1984166200070186620004a7565b60005b828110156200072b5784890151825560018201915060208501945060208101905062000704565b868310156200074b578489015162000747601f8916826200063b565b8355505b6001600288020188555050505b505050505050565b61246180620007706000396000f3fe6080604052600436106101145760003560e01c80639435c887116100a0578063e25fe17511610064578063e25fe17514610322578063ecfc7ecc1461034d578063f122020314610357578063f1a9af8914610382578063f87a7194146103ad57610114565b80639435c887146102795780639a82a09a14610283578063aff586ad146102ae578063c623674f146102cc578063d57bde79146102f757610114565b806378e97925116100e757806378e97925146101a45780638da5cb5b146101cf5780638fa8b790146101fa57806391f90157146102115780639410c6871461023c57610114565b806324600fc3146101195780633197cbb614610137578063430ca46f1461016257806370d29c1114610179575b600080fd5b6101216103ea565b60405161012e91906118c2565b60405180910390f35b34801561014357600080fd5b5061014c6107c7565b60405161015991906118f6565b60405180910390f35b34801561016e57600080fd5b506101776107cd565b005b34801561018557600080fd5b5061018e610960565b60405161019b91906118f6565b60405180910390f35b3480156101b057600080fd5b506101b9610966565b6040516101c691906118f6565b60405180910390f35b3480156101db57600080fd5b506101e461096c565b6040516101f19190611952565b60405180910390f35b34801561020657600080fd5b5061020f610990565b005b34801561021d57600080fd5b50610226610a72565b6040516102339190611952565b60405180910390f35b34801561024857600080fd5b50610263600480360381019061025e919061199e565b610a98565b60405161027091906118f6565b60405180910390f35b610281610ab0565b005b34801561028f57600080fd5b50610298610f9b565b6040516102a591906118c2565b60405180910390f35b6102b6610fae565b6040516102c391906118c2565b60405180910390f35b3480156102d857600080fd5b506102e16111cc565b6040516102ee9190611a5b565b60405180910390f35b34801561030357600080fd5b5061030c61125a565b60405161031991906118f6565b60405180910390f35b34801561032e57600080fd5b50610337611260565b60405161034491906118f6565b60405180910390f35b610355611266565b005b34801561036357600080fd5b5061036c61177e565b60405161037991906118c2565b60405180910390f35b34801561038e57600080fd5b50610397611791565b6040516103a491906118f6565b60405180910390f35b3480156103b957600080fd5b506103d460048036038101906103cf919061199e565b611797565b6040516103e191906118f6565b60405180910390f35b6000426006541015806104095750600760009054906101000a900460ff165b610448576040517f08c379a000000000000000000000000000000000000000000000000000000000815260040161043f90611ac9565b60405180910390fd5b600080600760009054906101000a900460ff161561052c576000600a60003373ffffffffffffffffffffffffffffffffffffffff1673ffffffffffffffffffffffffffffffffffffffff16815260200190815260200160002054116104e2576040517f08c379a00000000000000000000000000000000000000000000000000000000081526004016104d990611b5b565b60405180910390fd5b339150600a60003373ffffffffffffffffffffffffffffffffffffffff1673ffffffffffffffffffffffffffffffffffffffff168152602001908152602001600020549050610683565b60008054906101000a900473ffffffffffffffffffffffffffffffffffffffff1673ffffffffffffffffffffffffffffffffffffffff163373ffffffffffffffffffffffffffffffffffffffff16036105ac5760008054906101000a900473ffffffffffffffffffffffffffffffffffffffff1691506008549050610682565b600760019054906101000a900473ffffffffffffffffffffffffffffffffffffffff1673ffffffffffffffffffffffffffffffffffffffff163373ffffffffffffffffffffffffffffffffffffffff160361063c576040517f08c379a000000000000000000000000000000000000000000000000000000000815260040161063390611bc7565b60405180910390fd5b339150600a60003373ffffffffffffffffffffffffffffffffffffffff1673ffffffffffffffffffffffffffffffffffffffff1681526020019081526020016000205490505b5b600081036106c6576040517f08c379a00000000000000000000000000000000000000000000000000000000081526004016106bd90611c33565b60405180910390fd5b60008290508073ffffffffffffffffffffffffffffffffffffffff166108fc839081150290604051600060405180830381858888f1935050505061073f576040517f08c379a000000000000000000000000000000000000000000000000000000000815260040161073690611c9f565b60405180910390fd5b600a60003373ffffffffffffffffffffffffffffffffffffffff1673ffffffffffffffffffffffffffffffffffffffff168152602001908152602001600020600090557f4e20b2c0655bdeefa7b9ff1877b523f411f10a4181bdb72bca8473ada91070bf3084846040516107b593929190611cbf565b60405180910390a16001935050505090565b60065481565b60008054906101000a900473ffffffffffffffffffffffffffffffffffffffff1673ffffffffffffffffffffffffffffffffffffffff163373ffffffffffffffffffffffffffffffffffffffff161461085b576040517f08c379a000000000000000000000000000000000000000000000000000000000815260040161085290611d68565b60405180910390fd5b4260065411156108a0576040517f08c379a000000000000000000000000000000000000000000000000000000000815260040161089790611dfa565b60405180910390fd5b7f45c44c254b287cb637ffad47a2b175bc75c650521de0dfa0b9d41aa5d5eea86c30600760019054906101000a900473ffffffffffffffffffffffffffffffffffffffff16600a6000600760019054906101000a900473ffffffffffffffffffffffffffffffffffffffff1673ffffffffffffffffffffffffffffffffffffffff1673ffffffffffffffffffffffffffffffffffffffff1681526020019081526020016000205460405161095693929190611cbf565b60405180910390a1565b60095481565b60055481565b60008054906101000a900473ffffffffffffffffffffffffffffffffffffffff1681565b60008054906101000a900473ffffffffffffffffffffffffffffffffffffffff1673ffffffffffffffffffffffffffffffffffffffff163373ffffffffffffffffffffffffffffffffffffffff1614610a1e576040517f08c379a0000000000000000000000000000000000000000000000000000000008152600401610a1590611d68565b60405180910390fd5b6001600760006101000a81548160ff0219169083151502179055507f8d6c47ce91ee99a969888deaa147824dbe04b0d980a383763090f077a00b208730604051610a689190611952565b60405180910390a1565b600760019054906101000a900473ffffffffffffffffffffffffffffffffffffffff1681565b600b6020528060005260406000206000915090505481565b60008054906101000a900473ffffffffffffffffffffffffffffffffffffffff1673ffffffffffffffffffffffffffffffffffffffff163373ffffffffffffffffffffffffffffffffffffffff1603610b3e576040517f08c379a0000000000000000000000000000000000000000000000000000000008152600401610b3590611e8c565b60405180910390fd5b4260055411158015610b5257504260065410155b610b91576040517f08c379a0000000000000000000000000000000000000000000000000000000008152600401610b8890611ef8565b60405180910390fd5b600760009054906101000a900460ff1615610be1576040517f08c379a0000000000000000000000000000000000000000000000000000000008152600401610bd890611f64565b60405180910390fd5b600060095411610c26576040517f08c379a0000000000000000000000000000000000000000000000000000000008152600401610c1d90611fd0565b60405180910390fd5b6000600a60003373ffffffffffffffffffffffffffffffffffffffff1673ffffffffffffffffffffffffffffffffffffffff1681526020019081526020016000205411610ca8576040517f08c379a0000000000000000000000000000000000000000000000000000000008152600401610c9f90612062565b60405180910390fd5b600073ffffffffffffffffffffffffffffffffffffffff163373ffffffffffffffffffffffffffffffffffffffff1603610d17576040517f08c379a0000000000000000000000000000000000000000000000000000000008152600401610d0e906120ce565b60405180910390fd5b600760019054906101000a900473ffffffffffffffffffffffffffffffffffffffff1673ffffffffffffffffffffffffffffffffffffffff163373ffffffffffffffffffffffffffffffffffffffff16148015610d7657506001600954145b15610dca576000600760016101000a81548173ffffffffffffffffffffffffffffffffffffffff021916908373ffffffffffffffffffffffffffffffffffffffff1602179055506000600881905550610e7a565b600760019054906101000a900473ffffffffffffffffffffffffffffffffffffffff1673ffffffffffffffffffffffffffffffffffffffff163373ffffffffffffffffffffffffffffffffffffffff1603610e7957610e2a600c546117af565b600760016008600084919050558391906101000a81548173ffffffffffffffffffffffffffffffffffffffff021916908373ffffffffffffffffffffffffffffffffffffffff16021790555050505b5b600a60003373ffffffffffffffffffffffffffffffffffffffff1673ffffffffffffffffffffffffffffffffffffffff16815260200190815260200160002054600b60003373ffffffffffffffffffffffffffffffffffffffff1673ffffffffffffffffffffffffffffffffffffffff16815260200190815260200160002081905550600a60003373ffffffffffffffffffffffffffffffffffffffff1673ffffffffffffffffffffffffffffffffffffffff1681526020019081526020016000206000905560096000815480929190610f539061211d565b91905055507f8d34578e52d13b38a59839245598eae0583596431ea4b8f07e26017b940681773033600854600954604051610f919493929190612146565b60405180910390a1565b600760009054906101000a900460ff1681565b60008060009054906101000a900473ffffffffffffffffffffffffffffffffffffffff1673ffffffffffffffffffffffffffffffffffffffff163373ffffffffffffffffffffffffffffffffffffffff160361103f576040517f08c379a000000000000000000000000000000000000000000000000000000000815260040161103690611e8c565b60405180910390fd5b60003390506000600b60008373ffffffffffffffffffffffffffffffffffffffff1673ffffffffffffffffffffffffffffffffffffffff168152602001908152602001600020549050600081036110cb576040517f08c379a00000000000000000000000000000000000000000000000000000000081526004016110c290611c33565b60405180910390fd5b60008290508073ffffffffffffffffffffffffffffffffffffffff166108fc839081150290604051600060405180830381858888f19350505050611144576040517f08c379a000000000000000000000000000000000000000000000000000000000815260040161113b90611c9f565b60405180910390fd5b600b60008473ffffffffffffffffffffffffffffffffffffffff1673ffffffffffffffffffffffffffffffffffffffff168152602001908152602001600020600090557f4e20b2c0655bdeefa7b9ff1877b523f411f10a4181bdb72bca8473ada91070bf3084846040516111ba93929190611cbf565b60405180910390a16001935050505090565b600180546111d9906121ba565b80601f0160208091040260200160405190810160405280929190818152602001828054611205906121ba565b80156112525780601f1061122757610100808354040283529160200191611252565b820191906000526020600020905b81548152906001019060200180831161123557829003601f168201915b505050505081565b60085481565b60035481565b60008054906101000a900473ffffffffffffffffffffffffffffffffffffffff1673ffffffffffffffffffffffffffffffffffffffff163373ffffffffffffffffffffffffffffffffffffffff16036112f4576040517f08c379a00000000000000000000000000000000000000000000000000000000081526004016112eb90611e8c565b60405180910390fd5b426005541115801561130857504260065410155b611347576040517f08c379a000000000000000000000000000000000000000000000000000000000815260040161133e90611ef8565b60405180910390fd5b600760009054906101000a900460ff1615611397576040517f08c379a000000000000000000000000000000000000000000000000000000000815260040161138e90611f64565b60405180910390fd5b600034036113da576040517f08c379a00000000000000000000000000000000000000000000000000000000081526004016113d190612237565b60405180910390fd5b600073ffffffffffffffffffffffffffffffffffffffff163373ffffffffffffffffffffffffffffffffffffffff1603611449576040517f08c379a0000000000000000000000000000000000000000000000000000000008152600401611440906120ce565b60405180910390fd5b60006008540361154157600254341015611498576040517f08c379a000000000000000000000000000000000000000000000000000000000815260040161148f906122c9565b60405180910390fd5b3460088190555033600760016101000a81548173ffffffffffffffffffffffffffffffffffffffff021916908373ffffffffffffffffffffffffffffffffffffffff16021790555034600a60003373ffffffffffffffffffffffffffffffffffffffff1673ffffffffffffffffffffffffffffffffffffffff1681526020019081526020016000208190555060096000815480929190611537906122e9565b91905055506116cf565b600034600a60003373ffffffffffffffffffffffffffffffffffffffff1673ffffffffffffffffffffffffffffffffffffffff1681526020019081526020016000205461158e9190612331565b90506003546008546115a09190612331565b81116115e1576040517f08c379a00000000000000000000000000000000000000000000000000000000081526004016115d8906123d7565b60405180910390fd5b8060088190555033600760016101000a81548173ffffffffffffffffffffffffffffffffffffffff021916908373ffffffffffffffffffffffffffffffffffffffff1602179055506000600a60003373ffffffffffffffffffffffffffffffffffffffff1673ffffffffffffffffffffffffffffffffffffffff16815260200190815260200160002054036116895760096000815480929190611683906122e9565b91905055505b80600a60003373ffffffffffffffffffffffffffffffffffffffff1673ffffffffffffffffffffffffffffffffffffffff16815260200190815260200160002081905550505b600c60008154809291906116e2906122e9565b919050555033600d6000600c54815260200190815260200160002060006101000a81548173ffffffffffffffffffffffffffffffffffffffff021916908373ffffffffffffffffffffffffffffffffffffffff1602179055507f940f972f799ebdca3b61c1ee8c99a75c2e84abf194fe649b247a5d72bfff323330336008546009546040516117749493929190612146565b60405180910390a1565b600460009054906101000a900460ff1681565b60025481565b600a6020528060005260406000206000915090505481565b6000806000600d60006001866117c591906123f7565b815260200190815260200160002060009054906101000a900473ffffffffffffffffffffffffffffffffffffffff1690506000600a60008373ffffffffffffffffffffffffffffffffffffffff1673ffffffffffffffffffffffffffffffffffffffff1681526020019081526020016000205411156118895780600a60008373ffffffffffffffffffffffffffffffffffffffff1673ffffffffffffffffffffffffffffffffffffffff1681526020019081526020016000205492509250506118a2565b61189e60018561189991906123f7565b6117af565b5050505b915091565b60008115159050919050565b6118bc816118a7565b82525050565b60006020820190506118d760008301846118b3565b92915050565b6000819050919050565b6118f0816118dd565b82525050565b600060208201905061190b60008301846118e7565b92915050565b600073ffffffffffffffffffffffffffffffffffffffff82169050919050565b600061193c82611911565b9050919050565b61194c81611931565b82525050565b60006020820190506119676000830184611943565b92915050565b600080fd5b61197b81611931565b811461198657600080fd5b50565b60008135905061199881611972565b92915050565b6000602082840312156119b4576119b361196d565b5b60006119c284828501611989565b91505092915050565b600081519050919050565b600082825260208201905092915050565b60005b83811015611a055780820151818401526020810190506119ea565b60008484015250505050565b6000601f19601f8301169050919050565b6000611a2d826119cb565b611a3781856119d6565b9350611a478185602086016119e7565b611a5081611a11565b840191505092915050565b60006020820190508181036000830152611a758184611a22565b905092915050565b7f41756374696f6e206973207374696c6c20616374697665000000000000000000600082015250565b6000611ab36017836119d6565b9150611abe82611a7d565b602082019050919050565b60006020820190508181036000830152611ae281611aa6565b9050919050565b7f4f6e6c792061637469766520626964646572732063616e20776974686472617760008201527f2066756e64730000000000000000000000000000000000000000000000000000602082015250565b6000611b456026836119d6565b9150611b5082611ae9565b604082019050919050565b60006020820190508181036000830152611b7481611b38565b9050919050565b7f5468652077696e6e65722063616e6e6f742077697468647261772066756e6473600082015250565b6000611bb16020836119d6565b9150611bbc82611b7b565b602082019050919050565b60006020820190508181036000830152611be081611ba4565b9050919050565b7f416d6f756e74206d757374206265206e6f6e2d7a65726f2076616c7565000000600082015250565b6000611c1d601d836119d6565b9150611c2882611be7565b602082019050919050565b60006020820190508181036000830152611c4c81611c10565b9050919050565b7f46756e64207472616e7366657220686173206661696c65640000000000000000600082015250565b6000611c896018836119d6565b9150611c9482611c53565b602082019050919050565b60006020820190508181036000830152611cb881611c7c565b9050919050565b6000606082019050611cd46000830186611943565b611ce16020830185611943565b611cee60408301846118e7565b949350505050565b7f4f6e6c792074686520636f6e7472616374206f776e65722063616e207065726660008201527f6f726d207468697320616374696f6e0000000000000000000000000000000000602082015250565b6000611d52602f836119d6565b9150611d5d82611cf6565b604082019050919050565b60006020820190508181036000830152611d8181611d45565b9050919050565b7f41756374696f6e2063616e6e6f742062652066696e6973686564206265666f7260008201527f652069747320656e642074696d65000000000000000000000000000000000000602082015250565b6000611de4602e836119d6565b9150611def82611d88565b604082019050919050565b60006020820190508181036000830152611e1381611dd7565b9050919050565b7f436f6e7472616374206f776e65722043616e6e6f7420706572666f726d20746860008201527f697320616374696f6e0000000000000000000000000000000000000000000000602082015250565b6000611e766029836119d6565b9150611e8182611e1a565b604082019050919050565b60006020820190508181036000830152611ea581611e69565b9050919050565b7f41756374696f6e206973206e6f7420696e2070726f6772657373000000000000600082015250565b6000611ee2601a836119d6565b9150611eed82611eac565b602082019050919050565b60006020820190508181036000830152611f1181611ed5565b9050919050565b7f41756374696f6e2069732063616e63656c6c6564000000000000000000000000600082015250565b6000611f4e6014836119d6565b9150611f5982611f18565b602082019050919050565b60006020820190508181036000830152611f7d81611f41565b9050919050565b7f4e6f206269647320746f2063616e63656c000000000000000000000000000000600082015250565b6000611fba6011836119d6565b9150611fc582611f84565b602082019050919050565b60006020820190508181036000830152611fe981611fad565b9050919050565b7f4f6e6c792061637469766520626964646572732063616e2063616e63656c206260008201527f6964730000000000000000000000000000000000000000000000000000000000602082015250565b600061204c6023836119d6565b915061205782611ff0565b604082019050919050565b6000602082019050818103600083015261207b8161203f565b9050919050565b7f4d7573742062652061206c65676974696d617465207573657200000000000000600082015250565b60006120b86019836119d6565b91506120c382612082565b602082019050919050565b600060208201905081810360008301526120e7816120ab565b9050919050565b7f4e487b7100000000000000000000000000000000000000000000000000000000600052601160045260246000fd5b6000612128826118dd565b91506000820361213b5761213a6120ee565b5b600182039050919050565b600060808201905061215b6000830187611943565b6121686020830186611943565b61217560408301856118e7565b61218260608301846118e7565b95945050505050565b7f4e487b7100000000000000000000000000000000000000000000000000000000600052602260045260246000fd5b600060028204905060018216806121d257607f821691505b6020821081036121e5576121e461218b565b5b50919050565b7f43616e6e6f7420626520616e20656d7074792062696400000000000000000000600082015250565b60006122216016836119d6565b915061222c826121eb565b602082019050919050565b6000602082019050818103600083015261225081612214565b9050919050565b7f42696420616d6f756e74206d7573742062652067726561746572207468616e2060008201527f7374617274207072696365000000000000000000000000000000000000000000602082015250565b60006122b3602b836119d6565b91506122be82612257565b604082019050919050565b600060208201905081810360008301526122e2816122a6565b9050919050565b60006122f4826118dd565b91507fffffffffffffffffffffffffffffffffffffffffffffffffffffffffffffffff8203612326576123256120ee565b5b600182019050919050565b600061233c826118dd565b9150612347836118dd565b925082820190508082111561235f5761235e6120ee565b5b92915050565b7f42696420616d6f756e74206d7573742062652067726561746572207468616e2060008201527f63757272656e7420616d6f756e74202b20737465700000000000000000000000602082015250565b60006123c16035836119d6565b91506123cc82612365565b604082019050919050565b600060208201905081810360008301526123f0816123b4565b9050919050565b6000612402826118dd565b915061240d836118dd565b9250828203905081811115612425576124246120ee565b5b9291505056fea264697066735822122080e78d785682dfb00a650097c923a7d27fc4a2e5894cad9320c616db49742f7364736f6c63430008130033",
  "immutableReferences": {},
  "source": "// SPDX-License-Identifier: MIT\r\npragma solidity ^0.8.19;\r\n\r\ncontract Auction {\r\n\r\n    // Possible options to extend functionality\r\n    // ** option for BuyNow\r\n    // ** option to use auction commision\r\n\r\n    // Contract costructor variables\r\n\taddress public owner;\r\n\tstring public ipfsHash;\r\n\tuint public startPrice;\r\n\tuint public step;\r\n\tbool public promoted;\r\n\tuint public startTime; \t\t// all dates must come in UTC\r\n\tuint public endTime;\t\t// all dates must come in UTC\r\n\r\n\t// Contract state variables\r\n\tbool public cancelled = false;\r\n\taddress public highestBidder;\r\n\tuint public highestBid = 0;\r\n \tuint public bidderCount = 0;\r\n\r\n \t// Contract mappings\r\n\tmapping(address=>uint) public activeBids;   \r\n\tmapping(address=>uint) public cancelledBids;\r\n\r\n\t// Bidding history\r\n\tuint bidderHistoryCount = 0;\r\n\tmapping(uint=>address) bidHistory;\r\n\r\n\t// Events\r\n\tevent bidPlaced(address _auction, address _bidder, uint _highestBid, uint _bidderCount);\r\n\tevent bidCancelled(address _auction, address _bidder, uint _highestBid, uint _bidderCount);\r\n\tevent auctionCancelled(address _auction);\r\n\tevent auctionFinished(address _auction, address _winner, uint _finalPrice);\r\n\tevent fundsWithdrawn(address _auction, address _bidder, uint _anmout);\r\n\r\n\tconstructor(address _owner, string memory _ipfsHash, uint _price, uint _step, bool _promoted, uint _startTime, uint _endTime){\r\n\t\towner = _owner;\r\n\t\tipfsHash = _ipfsHash;\r\n\t\tstartPrice = _price;\r\n\t\tstep = _step;\r\n\t\tpromoted = _promoted;\r\n\t\tstartTime = _startTime;\t\t\r\n\t\tendTime = _endTime;\t\t\t\r\n\t}\r\n\r\n\tfunction placeBid() public notOwner auctionInProgress notCancelled payable { \r\n\t\r\n\t\t// Check current bid\r\n\t\trequire(msg.value != 0, \"Cannot be an empty bid\");\r\n\t\trequire(msg.sender != address(0), \"Must be a legitimate user\");\t\r\n\r\n\t\t// If highestBid is still 0, its the first bid\r\n\t\tif(highestBid == 0){\r\n\t\t\trequire(msg.value >= startPrice, \"Bid amount must be greater than start price\");\r\n\t\t\thighestBid = msg.value;\t\t\r\n\t\t\thighestBidder = msg.sender;\r\n\t\t\tactiveBids[msg.sender] = msg.value;\r\n\t\t\tbidderCount++;\r\n\t\t}else{\r\n\t\t\t// Calculate amount new bid amount\r\n\t\t\tuint bid = activeBids[msg.sender] + msg.value;\r\n\t\t\trequire(bid > (highestBid + step), \"Bid amount must be greater than current amount + step\");\r\n\t\t\t// Save the previsous bid\r\n\t\t\t// Set new values for bidders\r\n\t\t\thighestBid = bid;\r\n\t\t\thighestBidder = msg.sender;\r\n\t\t\tif(activeBids[msg.sender] == 0) bidderCount++;\r\n\t\t\tactiveBids[msg.sender] = bid;\t\t\t\r\n\t\t}\r\n\t\t// Save bidding historical aspect\r\n\t\tbidderHistoryCount++;\r\n\t\tbidHistory[bidderHistoryCount] = msg.sender;\t\r\n\r\n\t\temit bidPlaced(address(this), msg.sender, highestBid, bidderCount); \r\n\t}\r\n\r\n\tfunction cancelBid() public notOwner auctionInProgress notCancelled payable {\r\n\r\n\t\trequire(bidderCount > 0, \"No bids to cancel\");\r\n\t\trequire(activeBids[msg.sender]>0, \"Only active bidders can cancel bids\");\r\n\t\trequire(msg.sender != address(0), \"Must be a legitimate user\");\t\r\n\r\n\t\tif(msg.sender == highestBidder && bidderCount == 1){\t\t\r\n\t\t\t// simply return it to start price\r\n\t\t\thighestBidder = address(0);\r\n\t\t\thighestBid = 0;\r\n\t\t}else if(msg.sender == highestBidder){\r\n\t\t\t(highestBidder, highestBid) = getNewHighestBid(bidderHistoryCount);\r\n\t\t}\r\n\r\n  \t\tcancelledBids[msg.sender] = activeBids[msg.sender];\r\n\t\tdelete activeBids[msg.sender];\r\n\t\tbidderCount--;\r\n\t\temit bidCancelled(address(this), msg.sender, highestBid, bidderCount);\t\r\n\t}\r\n\r\n\tfunction cancelAuction() public onlyOwner {\r\n\t\tcancelled=true;\r\n\t\temit auctionCancelled(address(this));\r\n\t}\r\n\r\n\tfunction finishAuction() public onlyOwner{\r\n\t\trequire(endTime <= block.timestamp, \"Auction cannot be finished before its end time\");\r\n\t\temit auctionFinished(address(this), highestBidder, activeBids[highestBidder]); \r\n\t}\r\n\r\n\t// Have to handle cases:\r\n\t// 1. Cancelled by owner\r\n\t// 2. Owner withdraws funds\r\n\t// 3. Participants withdraw funds\r\n\tfunction withdrawFunds() public inactiveAuction payable returns(bool success) {  \r\n\t\t\r\n\t\taddress recipientAccount;\r\n        uint recipientAmount;\r\n\r\n\t\tif(cancelled){\r\n\t\t\trequire(activeBids[msg.sender] > 0, \"Only active bidders can withdraw funds\");\r\n\t\t\trecipientAccount = msg.sender;\r\n\t\t\trecipientAmount = activeBids[msg.sender];\r\n\t\t} else{\r\n\t\t\t// If the bid is was can\r\n\t\t\tif(msg.sender == owner){\r\n\t\t\t\trecipientAccount = owner;\r\n\t\t\t\trecipientAmount = highestBid;\r\n\t\t\t}else{\r\n\t\t\t\trequire(msg.sender != highestBidder, \"The winner cannot withdraw funds\");\r\n\t\t\t\trecipientAccount = msg.sender;\r\n\t\t\t\trecipientAmount = activeBids[msg.sender];\r\n\t\t\t}\t\t\t\r\n\t\t}\r\n\r\n\t\tif (recipientAmount == 0) revert(\"Amount must be non-zero value\");\r\n\r\n\t\taddress payable payableRecipientAccount = payable(recipientAccount);\r\n\t\tif (!payableRecipientAccount.send(recipientAmount)) revert(\"Fund transfer has failed\");\r\n \t\tdelete activeBids[msg.sender];\r\n\r\n\t\temit fundsWithdrawn(address(this), recipientAccount, recipientAmount);\t\r\n\t\treturn true;\r\n\t}\r\n\r\n\tfunction withdrawFundsCancelledBid() public notOwner payable returns(bool success) {\r\n\t\taddress recipientAccount = msg.sender;\r\n        uint recipientAmount = cancelledBids[recipientAccount];\r\n\r\n\t\tif (recipientAmount == 0) revert(\"Amount must be non-zero value\");\r\n\t\t\r\n\t\taddress payable payableRecipientAccount = payable(recipientAccount);\r\n        if (!payableRecipientAccount.send(recipientAmount)) revert(\"Fund transfer has failed\");\r\n \t\tdelete cancelledBids[recipientAccount];\r\n\r\n\t\temit fundsWithdrawn(address(this), recipientAccount, recipientAmount);\t\r\n\t\treturn true;\r\n\t}\r\n\r\n\t// Helper function. Can be invoked only when msg.sender == highestBidder\r\n\t// The function cannpot be called if there less than two active bidders\r\n\t// _order should correspond to the current highest bid\r\n\tfunction getNewHighestBid(uint _order) private view returns (address newHighestBidder, uint newHighestBid) {\r\n\t\t\r\n\t\taddress historicalBidder =  bidHistory[_order-1];\r\n\t\tif(activeBids[historicalBidder] > 0) return (historicalBidder, activeBids[historicalBidder]); \t\r\n\t\telse getNewHighestBid(_order-1);  \r\n\t}\r\n\r\n  \t//*** Modifiers\r\n  \tmodifier onlyOwner {\r\n        require(msg.sender == owner, \"Only the contract owner can perform this action\");\r\n        _; // \r\n    }\r\n  \t\r\n  \tmodifier notOwner {\r\n        require(msg.sender != owner, \"Contract owner Cannot perform this action\");\r\n        _; // \r\n    }\r\n\r\n    modifier auctionInProgress {\r\n    \trequire(startTime <= block.timestamp && endTime >= block.timestamp, \r\n    \t\t\"Auction is not in progress\");\r\n        _; // \r\n    }\r\n\r\n    modifier notCancelled {\r\n    \trequire(!cancelled, \"Auction is cancelled\");\r\n        _; // \r\n    }\r\n\r\n    modifier inactiveAuction {\r\n    \trequire(endTime >= block.timestamp || cancelled, \"Auction is still active\");\r\n        _; // \r\n    }\r\n\r\n}\r\n",
  "sourcePath": "C:\\Projects\\University Project\\Blockchain-based-online-auction\\backend\\smart-contracts\\contracts\\Auction.sol",
  "compiler": {
    "name": "solc",
    "version": "0.8.19+commit.7dd6d404.Emscripten.clang"
  },
  "schemaVersion": "3.4.13",
  "updatedAt": "2023-04-13T03:14:51.267Z",
  "devdoc": {
    "kind": "dev",
    "methods": {},
    "version": 1
  },
  "userdoc": {
    "kind": "user",
    "methods": {},
    "version": 1
  }
}