{
  "contractName": "Auction",
  "abi": [
    {
      "inputs": [
        {
          "internalType": "address",
          "name": "_owner",
          "type": "address"
        },
        {
          "internalType": "string",
          "name": "_ipfsHash",
          "type": "string"
        },
        {
          "internalType": "uint256",
          "name": "_price",
          "type": "uint256"
        },
        {
          "internalType": "uint256",
          "name": "_step",
          "type": "uint256"
        },
        {
          "internalType": "bool",
          "name": "_promoted",
          "type": "bool"
        },
        {
          "internalType": "uint256",
          "name": "_startTime",
          "type": "uint256"
        },
        {
          "internalType": "uint256",
          "name": "_endTime",
          "type": "uint256"
        }
      ],
      "stateMutability": "nonpayable",
      "type": "constructor"
    },
    {
      "anonymous": false,
      "inputs": [
        {
          "indexed": false,
          "internalType": "address",
          "name": "_auction",
          "type": "address"
        },
        {
          "indexed": false,
          "internalType": "uint256",
          "name": "_auctionBalance",
          "type": "uint256"
        }
      ],
      "name": "auctionCancelled",
      "type": "event"
    },
    {
      "anonymous": false,
      "inputs": [
        {
          "indexed": false,
          "internalType": "address",
          "name": "_auction",
          "type": "address"
        },
        {
          "indexed": false,
          "internalType": "address",
          "name": "_winner",
          "type": "address"
        },
        {
          "indexed": false,
          "internalType": "uint256",
          "name": "_finalPrice",
          "type": "uint256"
        },
        {
          "indexed": false,
          "internalType": "uint256",
          "name": "_auctionBalance",
          "type": "uint256"
        }
      ],
      "name": "auctionFinished",
      "type": "event"
    },
    {
      "anonymous": false,
      "inputs": [
        {
          "indexed": false,
          "internalType": "address",
          "name": "_auction",
          "type": "address"
        },
        {
          "indexed": false,
          "internalType": "address",
          "name": "_bidder",
          "type": "address"
        },
        {
          "indexed": false,
          "internalType": "uint256",
          "name": "_highestBid",
          "type": "uint256"
        },
        {
          "indexed": false,
          "internalType": "uint256",
          "name": "_bidderCount",
          "type": "uint256"
        }
      ],
      "name": "bidCancelled",
      "type": "event"
    },
    {
      "anonymous": false,
      "inputs": [
        {
          "indexed": false,
          "internalType": "address",
          "name": "_auction",
          "type": "address"
        },
        {
          "indexed": false,
          "internalType": "address",
          "name": "_bidder",
          "type": "address"
        },
        {
          "indexed": false,
          "internalType": "uint256",
          "name": "_highestBid",
          "type": "uint256"
        },
        {
          "indexed": false,
          "internalType": "uint256",
          "name": "_bidderCount",
          "type": "uint256"
        }
      ],
      "name": "bidPlaced",
      "type": "event"
    },
    {
      "anonymous": false,
      "inputs": [
        {
          "indexed": false,
          "internalType": "address",
          "name": "_auction",
          "type": "address"
        },
        {
          "indexed": false,
          "internalType": "address",
          "name": "_bidder",
          "type": "address"
        },
        {
          "indexed": false,
          "internalType": "uint256",
          "name": "_amount",
          "type": "uint256"
        },
        {
          "indexed": false,
          "internalType": "uint256",
          "name": "_auctionBalance",
          "type": "uint256"
        }
      ],
      "name": "fundsWithdrawn",
      "type": "event"
    },
    {
      "inputs": [
        {
          "internalType": "address",
          "name": "",
          "type": "address"
        }
      ],
      "name": "activeBids",
      "outputs": [
        {
          "internalType": "uint256",
          "name": "",
          "type": "uint256"
        }
      ],
      "stateMutability": "view",
      "type": "function"
    },
    {
      "inputs": [],
      "name": "bidderCount",
      "outputs": [
        {
          "internalType": "uint256",
          "name": "",
          "type": "uint256"
        }
      ],
      "stateMutability": "view",
      "type": "function"
    },
    {
      "inputs": [],
      "name": "cancelled",
      "outputs": [
        {
          "internalType": "bool",
          "name": "",
          "type": "bool"
        }
      ],
      "stateMutability": "view",
      "type": "function"
    },
    {
      "inputs": [
        {
          "internalType": "address",
          "name": "",
          "type": "address"
        }
      ],
      "name": "cancelledBids",
      "outputs": [
        {
          "internalType": "uint256",
          "name": "",
          "type": "uint256"
        }
      ],
      "stateMutability": "view",
      "type": "function"
    },
    {
      "inputs": [],
      "name": "endTime",
      "outputs": [
        {
          "internalType": "uint256",
          "name": "",
          "type": "uint256"
        }
      ],
      "stateMutability": "view",
      "type": "function"
    },
    {
      "inputs": [],
      "name": "highestBid",
      "outputs": [
        {
          "internalType": "uint256",
          "name": "",
          "type": "uint256"
        }
      ],
      "stateMutability": "view",
      "type": "function"
    },
    {
      "inputs": [],
      "name": "highestBidder",
      "outputs": [
        {
          "internalType": "address",
          "name": "",
          "type": "address"
        }
      ],
      "stateMutability": "view",
      "type": "function"
    },
    {
      "inputs": [],
      "name": "ipfsHash",
      "outputs": [
        {
          "internalType": "string",
          "name": "",
          "type": "string"
        }
      ],
      "stateMutability": "view",
      "type": "function"
    },
    {
      "inputs": [],
      "name": "owner",
      "outputs": [
        {
          "internalType": "address",
          "name": "",
          "type": "address"
        }
      ],
      "stateMutability": "view",
      "type": "function"
    },
    {
      "inputs": [],
      "name": "promoted",
      "outputs": [
        {
          "internalType": "bool",
          "name": "",
          "type": "bool"
        }
      ],
      "stateMutability": "view",
      "type": "function"
    },
    {
      "inputs": [],
      "name": "startPrice",
      "outputs": [
        {
          "internalType": "uint256",
          "name": "",
          "type": "uint256"
        }
      ],
      "stateMutability": "view",
      "type": "function"
    },
    {
      "inputs": [],
      "name": "startTime",
      "outputs": [
        {
          "internalType": "uint256",
          "name": "",
          "type": "uint256"
        }
      ],
      "stateMutability": "view",
      "type": "function"
    },
    {
      "inputs": [],
      "name": "step",
      "outputs": [
        {
          "internalType": "uint256",
          "name": "",
          "type": "uint256"
        }
      ],
      "stateMutability": "view",
      "type": "function"
    },
    {
      "inputs": [],
      "name": "placeBid",
      "outputs": [],
      "stateMutability": "payable",
      "type": "function"
    },
    {
      "inputs": [],
      "name": "cancelBid",
      "outputs": [],
      "stateMutability": "payable",
      "type": "function"
    },
    {
      "inputs": [],
      "name": "cancelAuction",
      "outputs": [],
      "stateMutability": "nonpayable",
      "type": "function"
    },
    {
      "inputs": [],
      "name": "finishAuction",
      "outputs": [],
      "stateMutability": "nonpayable",
      "type": "function"
    },
    {
      "inputs": [],
      "name": "withdrawFunds",
      "outputs": [
        {
          "internalType": "bool",
          "name": "success",
          "type": "bool"
        }
      ],
      "stateMutability": "payable",
      "type": "function"
    },
    {
      "inputs": [],
      "name": "withdrawFundsCancelledBid",
      "outputs": [
        {
          "internalType": "bool",
          "name": "success",
          "type": "bool"
        }
      ],
      "stateMutability": "payable",
      "type": "function"
    }
  ],
  "bytecode": "0x60806040526000600760006101000a81548160ff021916908315150217905550600060085560006009556000600c553480156200003b57600080fd5b5060405162002bcb38038062002bcb833981810160405281019062000061919062000366565b866000806101000a81548173ffffffffffffffffffffffffffffffffffffffff021916908373ffffffffffffffffffffffffffffffffffffffff1602179055508560019081620000b2919062000679565b50846002819055508360038190555082600460006101000a81548160ff02191690831515021790555081600581905550806006819055505050505050505062000760565b6000604051905090565b600080fd5b600080fd5b600073ffffffffffffffffffffffffffffffffffffffff82169050919050565b600062000137826200010a565b9050919050565b62000149816200012a565b81146200015557600080fd5b50565b60008151905062000169816200013e565b92915050565b600080fd5b600080fd5b6000601f19601f8301169050919050565b7f4e487b7100000000000000000000000000000000000000000000000000000000600052604160045260246000fd5b620001c48262000179565b810181811067ffffffffffffffff82111715620001e657620001e56200018a565b5b80604052505050565b6000620001fb620000f6565b9050620002098282620001b9565b919050565b600067ffffffffffffffff8211156200022c576200022b6200018a565b5b620002378262000179565b9050602081019050919050565b60005b838110156200026457808201518184015260208101905062000247565b60008484015250505050565b60006200028762000281846200020e565b620001ef565b905082815260208101848484011115620002a657620002a562000174565b5b620002b384828562000244565b509392505050565b600082601f830112620002d357620002d26200016f565b5b8151620002e584826020860162000270565b91505092915050565b6000819050919050565b6200030381620002ee565b81146200030f57600080fd5b50565b6000815190506200032381620002f8565b92915050565b60008115159050919050565b620003408162000329565b81146200034c57600080fd5b50565b600081519050620003608162000335565b92915050565b600080600080600080600060e0888a03121562000388576200038762000100565b5b6000620003988a828b0162000158565b975050602088015167ffffffffffffffff811115620003bc57620003bb62000105565b5b620003ca8a828b01620002bb565b9650506040620003dd8a828b0162000312565b9550506060620003f08a828b0162000312565b9450506080620004038a828b016200034f565b93505060a0620004168a828b0162000312565b92505060c0620004298a828b0162000312565b91505092959891949750929550565b600081519050919050565b7f4e487b7100000000000000000000000000000000000000000000000000000000600052602260045260246000fd5b600060028204905060018216806200048b57607f821691505b602082108103620004a157620004a062000443565b5b50919050565b60008190508160005260206000209050919050565b60006020601f8301049050919050565b600082821b905092915050565b6000600883026200050b7fffffffffffffffffffffffffffffffffffffffffffffffffffffffffffffffff82620004cc565b620005178683620004cc565b95508019841693508086168417925050509392505050565b6000819050919050565b60006200055a620005546200054e84620002ee565b6200052f565b620002ee565b9050919050565b6000819050919050565b620005768362000539565b6200058e620005858262000561565b848454620004d9565b825550505050565b600090565b620005a562000596565b620005b28184846200056b565b505050565b5b81811015620005da57620005ce6000826200059b565b600181019050620005b8565b5050565b601f8211156200062957620005f381620004a7565b620005fe84620004bc565b810160208510156200060e578190505b620006266200061d85620004bc565b830182620005b7565b50505b505050565b600082821c905092915050565b60006200064e600019846008026200062e565b1980831691505092915050565b60006200066983836200063b565b9150826002028217905092915050565b620006848262000438565b67ffffffffffffffff811115620006a0576200069f6200018a565b5b620006ac825462000472565b620006b9828285620005de565b600060209050601f831160018114620006f15760008415620006dc578287015190505b620006e885826200065b565b86555062000758565b601f1984166200070186620004a7565b60005b828110156200072b5784890151825560018201915060208501945060208101905062000704565b868310156200074b578489015162000747601f8916826200063b565b8355505b6001600288020188555050505b505050505050565b61245b80620007706000396000f3fe6080604052600436106101145760003560e01c80639435c887116100a0578063e25fe17511610064578063e25fe17514610322578063ecfc7ecc1461034d578063f122020314610357578063f1a9af8914610382578063f87a7194146103ad57610114565b80639435c887146102795780639a82a09a14610283578063aff586ad146102ae578063c623674f146102cc578063d57bde79146102f757610114565b806378e97925116100e757806378e97925146101a45780638da5cb5b146101cf5780638fa8b790146101fa57806391f90157146102115780639410c6871461023c57610114565b806324600fc3146101195780633197cbb614610137578063430ca46f1461016257806370d29c1114610179575b600080fd5b6101216103ea565b60405161012e91906118ca565b60405180910390f35b34801561014357600080fd5b5061014c6107c9565b60405161015991906118fe565b60405180910390f35b34801561016e57600080fd5b506101776107cf565b005b34801561018557600080fd5b5061018e610964565b60405161019b91906118fe565b60405180910390f35b3480156101b057600080fd5b506101b961096a565b6040516101c691906118fe565b60405180910390f35b3480156101db57600080fd5b506101e4610970565b6040516101f1919061195a565b60405180910390f35b34801561020657600080fd5b5061020f610994565b005b34801561021d57600080fd5b50610226610a78565b604051610233919061195a565b60405180910390f35b34801561024857600080fd5b50610263600480360381019061025e91906119a6565b610a9e565b60405161027091906118fe565b60405180910390f35b610281610ab6565b005b34801561028f57600080fd5b50610298610fa1565b6040516102a591906118ca565b60405180910390f35b6102b6610fb4565b6040516102c391906118ca565b60405180910390f35b3480156102d857600080fd5b506102e16111d4565b6040516102ee9190611a63565b60405180910390f35b34801561030357600080fd5b5061030c611262565b60405161031991906118fe565b60405180910390f35b34801561032e57600080fd5b50610337611268565b60405161034491906118fe565b60405180910390f35b61035561126e565b005b34801561036357600080fd5b5061036c611786565b60405161037991906118ca565b60405180910390f35b34801561038e57600080fd5b50610397611799565b6040516103a491906118fe565b60405180910390f35b3480156103b957600080fd5b506103d460048036038101906103cf91906119a6565b61179f565b6040516103e191906118fe565b60405180910390f35b6000600654421015806104095750600760009054906101000a900460ff165b610448576040517f08c379a000000000000000000000000000000000000000000000000000000000815260040161043f90611ad1565b60405180910390fd5b600080600760009054906101000a900460ff161561052c576000600a60003373ffffffffffffffffffffffffffffffffffffffff1673ffffffffffffffffffffffffffffffffffffffff16815260200190815260200160002054116104e2576040517f08c379a00000000000000000000000000000000000000000000000000000000081526004016104d990611b63565b60405180910390fd5b339150600a60003373ffffffffffffffffffffffffffffffffffffffff1673ffffffffffffffffffffffffffffffffffffffff168152602001908152602001600020549050610683565b60008054906101000a900473ffffffffffffffffffffffffffffffffffffffff1673ffffffffffffffffffffffffffffffffffffffff163373ffffffffffffffffffffffffffffffffffffffff16036105ac5760008054906101000a900473ffffffffffffffffffffffffffffffffffffffff1691506008549050610682565b600760019054906101000a900473ffffffffffffffffffffffffffffffffffffffff1673ffffffffffffffffffffffffffffffffffffffff163373ffffffffffffffffffffffffffffffffffffffff160361063c576040517f08c379a000000000000000000000000000000000000000000000000000000000815260040161063390611bcf565b60405180910390fd5b339150600a60003373ffffffffffffffffffffffffffffffffffffffff1673ffffffffffffffffffffffffffffffffffffffff1681526020019081526020016000205490505b5b600081036106c6576040517f08c379a00000000000000000000000000000000000000000000000000000000081526004016106bd90611c3b565b60405180910390fd5b60008290508073ffffffffffffffffffffffffffffffffffffffff166108fc839081150290604051600060405180830381858888f1935050505061073f576040517f08c379a000000000000000000000000000000000000000000000000000000000815260040161073690611ca7565b60405180910390fd5b600a60003373ffffffffffffffffffffffffffffffffffffffff1673ffffffffffffffffffffffffffffffffffffffff168152602001908152602001600020600090557faca1fbd42d8154df200dde98d968ec2e82e31a4f0b925ab940a043890fd2d8ab308484476040516107b79493929190611cc7565b60405180910390a16001935050505090565b60065481565b60008054906101000a900473ffffffffffffffffffffffffffffffffffffffff1673ffffffffffffffffffffffffffffffffffffffff163373ffffffffffffffffffffffffffffffffffffffff161461085d576040517f08c379a000000000000000000000000000000000000000000000000000000000815260040161085490611d7e565b60405180910390fd5b4260065411156108a2576040517f08c379a000000000000000000000000000000000000000000000000000000000815260040161089990611e10565b60405180910390fd5b7f9978473fd9cd7895371ce1cc2389ac0834608984721745e8b26e2fd76aa8e09a30600760019054906101000a900473ffffffffffffffffffffffffffffffffffffffff16600a6000600760019054906101000a900473ffffffffffffffffffffffffffffffffffffffff1673ffffffffffffffffffffffffffffffffffffffff1673ffffffffffffffffffffffffffffffffffffffff168152602001908152602001600020544760405161095a9493929190611cc7565b60405180910390a1565b60095481565b60055481565b60008054906101000a900473ffffffffffffffffffffffffffffffffffffffff1681565b60008054906101000a900473ffffffffffffffffffffffffffffffffffffffff1673ffffffffffffffffffffffffffffffffffffffff163373ffffffffffffffffffffffffffffffffffffffff1614610a22576040517f08c379a0000000000000000000000000000000000000000000000000000000008152600401610a1990611d7e565b60405180910390fd5b6001600760006101000a81548160ff0219169083151502179055507f22b0d49b694dcdcafadd0f3b8064f5b6a648b4d3f509cfbefa5b18e8851c1d253047604051610a6e929190611e30565b60405180910390a1565b600760019054906101000a900473ffffffffffffffffffffffffffffffffffffffff1681565b600b6020528060005260406000206000915090505481565b60008054906101000a900473ffffffffffffffffffffffffffffffffffffffff1673ffffffffffffffffffffffffffffffffffffffff163373ffffffffffffffffffffffffffffffffffffffff1603610b44576040517f08c379a0000000000000000000000000000000000000000000000000000000008152600401610b3b90611ecb565b60405180910390fd5b4260055411158015610b5857504260065410155b610b97576040517f08c379a0000000000000000000000000000000000000000000000000000000008152600401610b8e90611f37565b60405180910390fd5b600760009054906101000a900460ff1615610be7576040517f08c379a0000000000000000000000000000000000000000000000000000000008152600401610bde90611fa3565b60405180910390fd5b600060095411610c2c576040517f08c379a0000000000000000000000000000000000000000000000000000000008152600401610c239061200f565b60405180910390fd5b6000600a60003373ffffffffffffffffffffffffffffffffffffffff1673ffffffffffffffffffffffffffffffffffffffff1681526020019081526020016000205411610cae576040517f08c379a0000000000000000000000000000000000000000000000000000000008152600401610ca5906120a1565b60405180910390fd5b600073ffffffffffffffffffffffffffffffffffffffff163373ffffffffffffffffffffffffffffffffffffffff1603610d1d576040517f08c379a0000000000000000000000000000000000000000000000000000000008152600401610d149061210d565b60405180910390fd5b600760019054906101000a900473ffffffffffffffffffffffffffffffffffffffff1673ffffffffffffffffffffffffffffffffffffffff163373ffffffffffffffffffffffffffffffffffffffff16148015610d7c57506001600954145b15610dd0576000600760016101000a81548173ffffffffffffffffffffffffffffffffffffffff021916908373ffffffffffffffffffffffffffffffffffffffff1602179055506000600881905550610e80565b600760019054906101000a900473ffffffffffffffffffffffffffffffffffffffff1673ffffffffffffffffffffffffffffffffffffffff163373ffffffffffffffffffffffffffffffffffffffff1603610e7f57610e30600c546117b7565b600760016008600084919050558391906101000a81548173ffffffffffffffffffffffffffffffffffffffff021916908373ffffffffffffffffffffffffffffffffffffffff16021790555050505b5b600a60003373ffffffffffffffffffffffffffffffffffffffff1673ffffffffffffffffffffffffffffffffffffffff16815260200190815260200160002054600b60003373ffffffffffffffffffffffffffffffffffffffff1673ffffffffffffffffffffffffffffffffffffffff16815260200190815260200160002081905550600a60003373ffffffffffffffffffffffffffffffffffffffff1673ffffffffffffffffffffffffffffffffffffffff1681526020019081526020016000206000905560096000815480929190610f599061215c565b91905055507f8d34578e52d13b38a59839245598eae0583596431ea4b8f07e26017b940681773033600854600954604051610f979493929190611cc7565b60405180910390a1565b600760009054906101000a900460ff1681565b60008060009054906101000a900473ffffffffffffffffffffffffffffffffffffffff1673ffffffffffffffffffffffffffffffffffffffff163373ffffffffffffffffffffffffffffffffffffffff1603611045576040517f08c379a000000000000000000000000000000000000000000000000000000000815260040161103c90611ecb565b60405180910390fd5b60003390506000600b60008373ffffffffffffffffffffffffffffffffffffffff1673ffffffffffffffffffffffffffffffffffffffff168152602001908152602001600020549050600081036110d1576040517f08c379a00000000000000000000000000000000000000000000000000000000081526004016110c890611c3b565b60405180910390fd5b60008290508073ffffffffffffffffffffffffffffffffffffffff166108fc839081150290604051600060405180830381858888f1935050505061114a576040517f08c379a000000000000000000000000000000000000000000000000000000000815260040161114190611ca7565b60405180910390fd5b600b60008473ffffffffffffffffffffffffffffffffffffffff1673ffffffffffffffffffffffffffffffffffffffff168152602001908152602001600020600090557faca1fbd42d8154df200dde98d968ec2e82e31a4f0b925ab940a043890fd2d8ab308484476040516111c29493929190611cc7565b60405180910390a16001935050505090565b600180546111e1906121b4565b80601f016020809104026020016040519081016040528092919081815260200182805461120d906121b4565b801561125a5780601f1061122f5761010080835404028352916020019161125a565b820191906000526020600020905b81548152906001019060200180831161123d57829003601f168201915b505050505081565b60085481565b60035481565b60008054906101000a900473ffffffffffffffffffffffffffffffffffffffff1673ffffffffffffffffffffffffffffffffffffffff163373ffffffffffffffffffffffffffffffffffffffff16036112fc576040517f08c379a00000000000000000000000000000000000000000000000000000000081526004016112f390611ecb565b60405180910390fd5b426005541115801561131057504260065410155b61134f576040517f08c379a000000000000000000000000000000000000000000000000000000000815260040161134690611f37565b60405180910390fd5b600760009054906101000a900460ff161561139f576040517f08c379a000000000000000000000000000000000000000000000000000000000815260040161139690611fa3565b60405180910390fd5b600034036113e2576040517f08c379a00000000000000000000000000000000000000000000000000000000081526004016113d990612231565b60405180910390fd5b600073ffffffffffffffffffffffffffffffffffffffff163373ffffffffffffffffffffffffffffffffffffffff1603611451576040517f08c379a00000000000000000000000000000000000000000000000000000000081526004016114489061210d565b60405180910390fd5b600060085403611549576002543410156114a0576040517f08c379a0000000000000000000000000000000000000000000000000000000008152600401611497906122c3565b60405180910390fd5b3460088190555033600760016101000a81548173ffffffffffffffffffffffffffffffffffffffff021916908373ffffffffffffffffffffffffffffffffffffffff16021790555034600a60003373ffffffffffffffffffffffffffffffffffffffff1673ffffffffffffffffffffffffffffffffffffffff168152602001908152602001600020819055506009600081548092919061153f906122e3565b91905055506116d7565b600034600a60003373ffffffffffffffffffffffffffffffffffffffff1673ffffffffffffffffffffffffffffffffffffffff16815260200190815260200160002054611596919061232b565b90506003546008546115a8919061232b565b81116115e9576040517f08c379a00000000000000000000000000000000000000000000000000000000081526004016115e0906123d1565b60405180910390fd5b8060088190555033600760016101000a81548173ffffffffffffffffffffffffffffffffffffffff021916908373ffffffffffffffffffffffffffffffffffffffff1602179055506000600a60003373ffffffffffffffffffffffffffffffffffffffff1673ffffffffffffffffffffffffffffffffffffffff1681526020019081526020016000205403611691576009600081548092919061168b906122e3565b91905055505b80600a60003373ffffffffffffffffffffffffffffffffffffffff1673ffffffffffffffffffffffffffffffffffffffff16815260200190815260200160002081905550505b600c60008154809291906116ea906122e3565b919050555033600d6000600c54815260200190815260200160002060006101000a81548173ffffffffffffffffffffffffffffffffffffffff021916908373ffffffffffffffffffffffffffffffffffffffff1602179055507f940f972f799ebdca3b61c1ee8c99a75c2e84abf194fe649b247a5d72bfff3233303360085460095460405161177c9493929190611cc7565b60405180910390a1565b600460009054906101000a900460ff1681565b60025481565b600a6020528060005260406000206000915090505481565b6000806000600d60006001866117cd91906123f1565b815260200190815260200160002060009054906101000a900473ffffffffffffffffffffffffffffffffffffffff1690506000600a60008373ffffffffffffffffffffffffffffffffffffffff1673ffffffffffffffffffffffffffffffffffffffff1681526020019081526020016000205411156118915780600a60008373ffffffffffffffffffffffffffffffffffffffff1673ffffffffffffffffffffffffffffffffffffffff1681526020019081526020016000205492509250506118aa565b6118a66001856118a191906123f1565b6117b7565b5050505b915091565b60008115159050919050565b6118c4816118af565b82525050565b60006020820190506118df60008301846118bb565b92915050565b6000819050919050565b6118f8816118e5565b82525050565b600060208201905061191360008301846118ef565b92915050565b600073ffffffffffffffffffffffffffffffffffffffff82169050919050565b600061194482611919565b9050919050565b61195481611939565b82525050565b600060208201905061196f600083018461194b565b92915050565b600080fd5b61198381611939565b811461198e57600080fd5b50565b6000813590506119a08161197a565b92915050565b6000602082840312156119bc576119bb611975565b5b60006119ca84828501611991565b91505092915050565b600081519050919050565b600082825260208201905092915050565b60005b83811015611a0d5780820151818401526020810190506119f2565b60008484015250505050565b6000601f19601f8301169050919050565b6000611a35826119d3565b611a3f81856119de565b9350611a4f8185602086016119ef565b611a5881611a19565b840191505092915050565b60006020820190508181036000830152611a7d8184611a2a565b905092915050565b7f41756374696f6e206973207374696c6c20616374697665000000000000000000600082015250565b6000611abb6017836119de565b9150611ac682611a85565b602082019050919050565b60006020820190508181036000830152611aea81611aae565b9050919050565b7f4f6e6c792061637469766520626964646572732063616e20776974686472617760008201527f2066756e64730000000000000000000000000000000000000000000000000000602082015250565b6000611b4d6026836119de565b9150611b5882611af1565b604082019050919050565b60006020820190508181036000830152611b7c81611b40565b9050919050565b7f5468652077696e6e65722063616e6e6f742077697468647261772066756e6473600082015250565b6000611bb96020836119de565b9150611bc482611b83565b602082019050919050565b60006020820190508181036000830152611be881611bac565b9050919050565b7f416d6f756e74206d757374206265206e6f6e2d7a65726f2076616c7565000000600082015250565b6000611c25601d836119de565b9150611c3082611bef565b602082019050919050565b60006020820190508181036000830152611c5481611c18565b9050919050565b7f46756e64207472616e7366657220686173206661696c65640000000000000000600082015250565b6000611c916018836119de565b9150611c9c82611c5b565b602082019050919050565b60006020820190508181036000830152611cc081611c84565b9050919050565b6000608082019050611cdc600083018761194b565b611ce9602083018661194b565b611cf660408301856118ef565b611d0360608301846118ef565b95945050505050565b7f4f6e6c792074686520636f6e7472616374206f776e65722063616e207065726660008201527f6f726d207468697320616374696f6e0000000000000000000000000000000000602082015250565b6000611d68602f836119de565b9150611d7382611d0c565b604082019050919050565b60006020820190508181036000830152611d9781611d5b565b9050919050565b7f41756374696f6e2063616e6e6f742062652066696e6973686564206265666f7260008201527f652069747320656e642074696d65000000000000000000000000000000000000602082015250565b6000611dfa602e836119de565b9150611e0582611d9e565b604082019050919050565b60006020820190508181036000830152611e2981611ded565b9050919050565b6000604082019050611e45600083018561194b565b611e5260208301846118ef565b9392505050565b7f436f6e7472616374206f776e65722043616e6e6f7420706572666f726d20746860008201527f697320616374696f6e0000000000000000000000000000000000000000000000602082015250565b6000611eb56029836119de565b9150611ec082611e59565b604082019050919050565b60006020820190508181036000830152611ee481611ea8565b9050919050565b7f41756374696f6e206973206e6f7420696e2070726f6772657373000000000000600082015250565b6000611f21601a836119de565b9150611f2c82611eeb565b602082019050919050565b60006020820190508181036000830152611f5081611f14565b9050919050565b7f41756374696f6e2069732063616e63656c6c6564000000000000000000000000600082015250565b6000611f8d6014836119de565b9150611f9882611f57565b602082019050919050565b60006020820190508181036000830152611fbc81611f80565b9050919050565b7f4e6f206269647320746f2063616e63656c000000000000000000000000000000600082015250565b6000611ff96011836119de565b915061200482611fc3565b602082019050919050565b6000602082019050818103600083015261202881611fec565b9050919050565b7f4f6e6c792061637469766520626964646572732063616e2063616e63656c206260008201527f6964730000000000000000000000000000000000000000000000000000000000602082015250565b600061208b6023836119de565b91506120968261202f565b604082019050919050565b600060208201905081810360008301526120ba8161207e565b9050919050565b7f4d7573742062652061206c65676974696d617465207573657200000000000000600082015250565b60006120f76019836119de565b9150612102826120c1565b602082019050919050565b60006020820190508181036000830152612126816120ea565b9050919050565b7f4e487b7100000000000000000000000000000000000000000000000000000000600052601160045260246000fd5b6000612167826118e5565b91506000820361217a5761217961212d565b5b600182039050919050565b7f4e487b7100000000000000000000000000000000000000000000000000000000600052602260045260246000fd5b600060028204905060018216806121cc57607f821691505b6020821081036121df576121de612185565b5b50919050565b7f43616e6e6f7420626520616e20656d7074792062696400000000000000000000600082015250565b600061221b6016836119de565b9150612226826121e5565b602082019050919050565b6000602082019050818103600083015261224a8161220e565b9050919050565b7f42696420616d6f756e74206d7573742062652067726561746572207468616e2060008201527f7374617274207072696365000000000000000000000000000000000000000000602082015250565b60006122ad602b836119de565b91506122b882612251565b604082019050919050565b600060208201905081810360008301526122dc816122a0565b9050919050565b60006122ee826118e5565b91507fffffffffffffffffffffffffffffffffffffffffffffffffffffffffffffffff82036123205761231f61212d565b5b600182019050919050565b6000612336826118e5565b9150612341836118e5565b92508282019050808211156123595761235861212d565b5b92915050565b7f42696420616d6f756e74206d7573742062652067726561746572207468616e2060008201527f63757272656e7420616d6f756e74202b20737465700000000000000000000000602082015250565b60006123bb6035836119de565b91506123c68261235f565b604082019050919050565b600060208201905081810360008301526123ea816123ae565b9050919050565b60006123fc826118e5565b9150612407836118e5565b925082820390508181111561241f5761241e61212d565b5b9291505056fea2646970667358221220650331871d6fdb4601b1af05cee27e1c23c33d39a56b0265c5a1b747a9f11e1764736f6c63430008130033",
  "immutableReferences": {},
  "source": "// SPDX-License-Identifier: MIT\r\npragma solidity ^0.8.19;\r\n\r\ncontract Auction {\r\n\r\n    // Possible options to extend functionality\r\n    // ** option for BuyNow\r\n    // ** option to use auction commision\r\n\r\n    // Contract costructor variables\r\n\taddress public owner;\r\n\tstring public ipfsHash;\r\n\tuint public startPrice;\r\n\tuint public step;\r\n\tbool public promoted;\r\n\tuint public startTime; \t\t// all dates must come in UTC\r\n\tuint public endTime;\t\t// all dates must come in UTC\r\n\r\n\t// Contract state variables\r\n\tbool public cancelled = false;\r\n\taddress public highestBidder;\r\n\tuint public highestBid = 0;\r\n \tuint public bidderCount = 0;\r\n\r\n \t// Contract mappings\r\n\tmapping(address=>uint) public activeBids;   \r\n\tmapping(address=>uint) public cancelledBids;\r\n\r\n\t// Bidding history\r\n\tuint bidderHistoryCount = 0;\r\n\tmapping(uint=>address) bidHistory;\r\n\r\n\t// Events\r\n\tevent bidPlaced(address _auction, address _bidder, uint _highestBid, uint _bidderCount);\r\n\tevent bidCancelled(address _auction, address _bidder, uint _highestBid, uint _bidderCount);\r\n\tevent auctionCancelled(address _auction, uint _auctionBalance);\r\n\tevent auctionFinished(address _auction, address _winner, uint _finalPrice, uint _auctionBalance);\r\n\tevent fundsWithdrawn(address _auction, address _bidder, uint _amount, uint _auctionBalance);\r\n\r\n\tconstructor(address _owner, string memory _ipfsHash, uint _price, uint _step, bool _promoted, uint _startTime, uint _endTime){\r\n\t\towner = _owner;\r\n\t\tipfsHash = _ipfsHash;\r\n\t\tstartPrice = _price;\r\n\t\tstep = _step;\r\n\t\tpromoted = _promoted;\r\n\t\tstartTime = _startTime;\t\t\r\n\t\tendTime = _endTime;\t\t\t\r\n\t}\r\n\r\n\tfunction placeBid() public notOwner auctionInProgress notCancelled payable { \r\n\t\r\n\t\t// Check current bid\r\n\t\trequire(msg.value != 0, \"Cannot be an empty bid\");\r\n\t\trequire(msg.sender != address(0), \"Must be a legitimate user\");\t\r\n\r\n\t\t// If highestBid is still 0, its the first bid\r\n\t\tif(highestBid == 0){\r\n\t\t\trequire(msg.value >= startPrice, \"Bid amount must be greater than start price\");\r\n\t\t\thighestBid = msg.value;\t\t\r\n\t\t\thighestBidder = msg.sender;\r\n\t\t\tactiveBids[msg.sender] = msg.value;\r\n\t\t\tbidderCount++;\r\n\t\t}else{\r\n\t\t\t// Calculate amount new bid amount\r\n\t\t\tuint bid = activeBids[msg.sender] + msg.value;\r\n\t\t\trequire(bid > (highestBid + step), \"Bid amount must be greater than current amount + step\");\r\n\t\t\t// Save the previsous bid\r\n\t\t\t// Set new values for bidders\r\n\t\t\thighestBid = bid;\r\n\t\t\thighestBidder = msg.sender;\r\n\t\t\tif(activeBids[msg.sender] == 0) bidderCount++;\r\n\t\t\tactiveBids[msg.sender] = bid;\t\t\t\r\n\t\t}\r\n\t\t// Save bidding historical aspect\r\n\t\tbidderHistoryCount++;\r\n\t\tbidHistory[bidderHistoryCount] = msg.sender;\t\r\n\r\n\t\temit bidPlaced(address(this), msg.sender, highestBid, bidderCount); \r\n\t}\r\n\r\n\tfunction cancelBid() public notOwner auctionInProgress notCancelled payable {\r\n\r\n\t\trequire(bidderCount > 0, \"No bids to cancel\");\r\n\t\trequire(activeBids[msg.sender]>0, \"Only active bidders can cancel bids\");\r\n\t\trequire(msg.sender != address(0), \"Must be a legitimate user\");\t\r\n\r\n\t\tif(msg.sender == highestBidder && bidderCount == 1){\t\t\r\n\t\t\t// simply return it to start price\r\n\t\t\thighestBidder = address(0);\r\n\t\t\thighestBid = 0;\r\n\t\t}else if(msg.sender == highestBidder){\r\n\t\t\t(highestBidder, highestBid) = getNewHighestBid(bidderHistoryCount);\r\n\t\t}\r\n\r\n  \t\tcancelledBids[msg.sender] = activeBids[msg.sender];\r\n\t\tdelete activeBids[msg.sender];\r\n\t\tbidderCount--;\r\n\t\temit bidCancelled(address(this), msg.sender, highestBid, bidderCount);\t\r\n\t}\r\n\r\n\tfunction cancelAuction() public onlyOwner {\r\n\t\tcancelled=true;\r\n\t\temit auctionCancelled(address(this), address(this).balance);\r\n\t}\r\n\r\n\tfunction finishAuction() public onlyOwner{\r\n\t\trequire(endTime <= block.timestamp, \"Auction cannot be finished before its end time\");\r\n\t\temit auctionFinished(address(this), highestBidder, activeBids[highestBidder], address(this).balance); \r\n\t}\r\n\r\n\t// Have to handle cases:\r\n\t// 1. Cancelled by owner\r\n\t// 2. Owner withdraws funds\r\n\t// 3. Participants withdraw funds\r\n\tfunction withdrawFunds() public inactiveAuction payable returns(bool success) {  \r\n\t\t\r\n\t\taddress recipientAccount;\r\n        uint recipientAmount;\r\n\r\n\t\tif(cancelled){\r\n\t\t\trequire(activeBids[msg.sender] > 0, \"Only active bidders can withdraw funds\");\r\n\t\t\trecipientAccount = msg.sender;\r\n\t\t\trecipientAmount = activeBids[msg.sender];\r\n\t\t} else{\r\n\t\t\t// If the bid is was can\r\n\t\t\tif(msg.sender == owner){\r\n\t\t\t\trecipientAccount = owner;\r\n\t\t\t\trecipientAmount = highestBid;\r\n\t\t\t}else{\r\n\t\t\t\trequire(msg.sender != highestBidder, \"The winner cannot withdraw funds\");\r\n\t\t\t\trecipientAccount = msg.sender;\r\n\t\t\t\trecipientAmount = activeBids[msg.sender];\r\n\t\t\t}\t\t\t\r\n\t\t}\r\n\r\n\t\tif (recipientAmount == 0) revert(\"Amount must be non-zero value\");\r\n\r\n\t\taddress payable payableRecipientAccount = payable(recipientAccount);\r\n\t\tif (!payableRecipientAccount.send(recipientAmount)) revert(\"Fund transfer has failed\");\r\n \t\tdelete activeBids[msg.sender];\r\n\r\n\t\temit fundsWithdrawn(address(this), recipientAccount, recipientAmount, address(this).balance);\t\r\n\t\treturn true;\r\n\t}\r\n\r\n\tfunction withdrawFundsCancelledBid() public notOwner payable returns(bool success) {\r\n\t\taddress recipientAccount = msg.sender;\r\n        uint recipientAmount = cancelledBids[recipientAccount];\r\n\r\n\t\tif (recipientAmount == 0) revert(\"Amount must be non-zero value\");\r\n\t\t\r\n\t\taddress payable payableRecipientAccount = payable(recipientAccount);\r\n        if (!payableRecipientAccount.send(recipientAmount)) revert(\"Fund transfer has failed\");\r\n \t\tdelete cancelledBids[recipientAccount];\r\n\r\n\t\temit fundsWithdrawn(address(this), recipientAccount, recipientAmount, address(this).balance);\t\r\n\t\treturn true;\r\n\t}\r\n\r\n\t// Helper function. Can be invoked only when msg.sender == highestBidder\r\n\t// The function cannpot be called if there less than two active bidders\r\n\t// _order should correspond to the current highest bid\r\n\tfunction getNewHighestBid(uint _order) private view returns (address newHighestBidder, uint newHighestBid) {\r\n\t\t\r\n\t\taddress historicalBidder =  bidHistory[_order-1];\r\n\t\tif(activeBids[historicalBidder] > 0) return (historicalBidder, activeBids[historicalBidder]); \t\r\n\t\telse getNewHighestBid(_order-1);  \r\n\t}\r\n\r\n  \t//*** Modifiers\r\n  \tmodifier onlyOwner {\r\n        require(msg.sender == owner, \"Only the contract owner can perform this action\");\r\n        _; // \r\n    }\r\n  \t\r\n  \tmodifier notOwner {\r\n        require(msg.sender != owner, \"Contract owner Cannot perform this action\");\r\n        _; // \r\n    }\r\n\r\n    modifier auctionInProgress {\r\n    \trequire(startTime <= block.timestamp && endTime >= block.timestamp, \r\n    \t\t\"Auction is not in progress\");\r\n        _; // \r\n    }\r\n\r\n    modifier notCancelled {\r\n    \trequire(!cancelled, \"Auction is cancelled\");\r\n        _; // \r\n    }\r\n\r\n    modifier inactiveAuction {\r\n    \trequire(block.timestamp >= endTime || cancelled, \"Auction is still active\");\r\n        _; // \r\n    }\r\n\r\n}\r\n",
  "sourcePath": "C:\\Projects\\University Project\\Blockchain-based-online-auction\\backend\\smart-contracts\\contracts\\Auction.sol",
  "compiler": {
    "name": "solc",
    "version": "0.8.19+commit.7dd6d404.Emscripten.clang"
  },
  "schemaVersion": "3.4.13",
  "updatedAt": "2023-04-19T20:58:52.221Z",
  "devdoc": {
    "kind": "dev",
    "methods": {},
    "version": 1
  },
  "userdoc": {
    "kind": "user",
    "methods": {},
    "version": 1
  }
}