{
  "contractName": "Auction",
  "abi": [
    {
      "inputs": [
        {
          "internalType": "address",
          "name": "_owner",
          "type": "address"
        },
        {
          "internalType": "uint256",
          "name": "_price",
          "type": "uint256"
        },
        {
          "internalType": "uint256",
          "name": "_step",
          "type": "uint256"
        },
        {
          "internalType": "uint256",
          "name": "_startTime",
          "type": "uint256"
        },
        {
          "internalType": "uint256",
          "name": "_endTime",
          "type": "uint256"
        }
      ],
      "stateMutability": "nonpayable",
      "type": "constructor"
    },
    {
      "anonymous": false,
      "inputs": [
        {
          "indexed": false,
          "internalType": "address",
          "name": "auction",
          "type": "address"
        }
      ],
      "name": "auctionCancelled",
      "type": "event"
    },
    {
      "anonymous": false,
      "inputs": [
        {
          "indexed": false,
          "internalType": "address",
          "name": "auction",
          "type": "address"
        }
      ],
      "name": "auctionFinished",
      "type": "event"
    },
    {
      "anonymous": false,
      "inputs": [
        {
          "indexed": false,
          "internalType": "address",
          "name": "auction",
          "type": "address"
        },
        {
          "indexed": false,
          "internalType": "address",
          "name": "bidder",
          "type": "address"
        },
        {
          "indexed": false,
          "internalType": "uint256",
          "name": "bid",
          "type": "uint256"
        }
      ],
      "name": "bidCancelled",
      "type": "event"
    },
    {
      "anonymous": false,
      "inputs": [
        {
          "indexed": false,
          "internalType": "address",
          "name": "auction",
          "type": "address"
        },
        {
          "indexed": false,
          "internalType": "address",
          "name": "bidder",
          "type": "address"
        },
        {
          "indexed": false,
          "internalType": "uint256",
          "name": "bid",
          "type": "uint256"
        }
      ],
      "name": "bidPlaced",
      "type": "event"
    },
    {
      "anonymous": false,
      "inputs": [],
      "name": "fundsWithdrawn",
      "type": "event"
    },
    {
      "inputs": [],
      "name": "endTime",
      "outputs": [
        {
          "internalType": "uint256",
          "name": "",
          "type": "uint256"
        }
      ],
      "stateMutability": "view",
      "type": "function"
    },
    {
      "inputs": [],
      "name": "owner",
      "outputs": [
        {
          "internalType": "address",
          "name": "",
          "type": "address"
        }
      ],
      "stateMutability": "view",
      "type": "function"
    },
    {
      "inputs": [],
      "name": "startPrice",
      "outputs": [
        {
          "internalType": "uint256",
          "name": "",
          "type": "uint256"
        }
      ],
      "stateMutability": "view",
      "type": "function"
    },
    {
      "inputs": [],
      "name": "startTime",
      "outputs": [
        {
          "internalType": "uint256",
          "name": "",
          "type": "uint256"
        }
      ],
      "stateMutability": "view",
      "type": "function"
    },
    {
      "inputs": [],
      "name": "step",
      "outputs": [
        {
          "internalType": "uint256",
          "name": "",
          "type": "uint256"
        }
      ],
      "stateMutability": "view",
      "type": "function"
    },
    {
      "inputs": [],
      "name": "placeBid",
      "outputs": [],
      "stateMutability": "payable",
      "type": "function"
    },
    {
      "inputs": [],
      "name": "cancelBid",
      "outputs": [],
      "stateMutability": "payable",
      "type": "function"
    },
    {
      "inputs": [],
      "name": "cancelAuction",
      "outputs": [],
      "stateMutability": "nonpayable",
      "type": "function"
    },
    {
      "inputs": [],
      "name": "finishAuction",
      "outputs": [],
      "stateMutability": "nonpayable",
      "type": "function"
    },
    {
      "inputs": [],
      "name": "withdrawFunds",
      "outputs": [],
      "stateMutability": "payable",
      "type": "function"
    }
  ],
  "bytecode": "0x608060405260006006553480156200001657600080fd5b5060405162000ee138038062000ee183398181016040528101906200003c919062000148565b846000806101000a81548173ffffffffffffffffffffffffffffffffffffffff021916908373ffffffffffffffffffffffffffffffffffffffff160217905550836001819055508260028190555081600381905550806004819055505050505050620001d0565b600080fd5b600073ffffffffffffffffffffffffffffffffffffffff82169050919050565b6000620000d582620000a8565b9050919050565b620000e781620000c8565b8114620000f357600080fd5b50565b6000815190506200010781620000dc565b92915050565b6000819050919050565b62000122816200010d565b81146200012e57600080fd5b50565b600081519050620001428162000117565b92915050565b600080600080600060a08688031215620001675762000166620000a3565b5b60006200017788828901620000f6565b95505060206200018a8882890162000131565b94505060406200019d8882890162000131565b9350506060620001b08882890162000131565b9250506080620001c38882890162000131565b9150509295509295909350565b610d0180620001e06000396000f3fe6080604052600436106100915760003560e01c80638fa8b790116100595780638fa8b790146101385780639435c8871461014f578063e25fe17514610159578063ecfc7ecc14610184578063f1a9af891461018e57610091565b806324600fc3146100965780633197cbb6146100a0578063430ca46f146100cb57806378e97925146100e25780638da5cb5b1461010d575b600080fd5b61009e6101b9565b005b3480156100ac57600080fd5b506100b5610275565b6040516100c29190610833565b60405180910390f35b3480156100d757600080fd5b506100e061027b565b005b3480156100ee57600080fd5b506100f76102b4565b6040516101049190610833565b60405180910390f35b34801561011957600080fd5b506101226102ba565b60405161012f919061088f565b60405180910390f35b34801561014457600080fd5b5061014d6102de565b005b6101576103a5565b005b34801561016557600080fd5b5061016e6104c5565b60405161017b9190610833565b60405180910390f35b61018c6104cb565b005b34801561019a57600080fd5b506101a3610814565b6040516101b09190610833565b60405180910390f35b60008054906101000a900473ffffffffffffffffffffffffffffffffffffffff1673ffffffffffffffffffffffffffffffffffffffff163373ffffffffffffffffffffffffffffffffffffffff1603610247576040517f08c379a000000000000000000000000000000000000000000000000000000000815260040161023e9061092d565b60405180910390fd5b7fac307fcf0669925bf80ff21893fd609acb84da6cd118aac5e2740fc70a61eb7060405160405180910390a1565b60045481565b7ff5567932da1d7ea737321c4e64abc5854e2cc406002c6a0ef015ba2c7edfc82d306040516102aa919061088f565b60405180910390a1565b60035481565b60008054906101000a900473ffffffffffffffffffffffffffffffffffffffff1681565b60008054906101000a900473ffffffffffffffffffffffffffffffffffffffff1673ffffffffffffffffffffffffffffffffffffffff163373ffffffffffffffffffffffffffffffffffffffff161461036c576040517f08c379a0000000000000000000000000000000000000000000000000000000008152600401610363906109bf565b60405180910390fd5b7f8d6c47ce91ee99a969888deaa147824dbe04b0d980a383763090f077a00b20873060405161039b919061088f565b60405180910390a1565b60008054906101000a900473ffffffffffffffffffffffffffffffffffffffff1673ffffffffffffffffffffffffffffffffffffffff163373ffffffffffffffffffffffffffffffffffffffff1603610433576040517f08c379a000000000000000000000000000000000000000000000000000000000815260040161042a9061092d565b60405180910390fd5b426003541115801561044757504260045410155b610486576040517f08c379a000000000000000000000000000000000000000000000000000000000815260040161047d90610a2b565b60405180910390fd5b7fb648250c1bc432c4698eec3454f94c276795897e5be0a2845d782c1cc91bbef430336101f46040516104bb93929190610a90565b60405180910390a1565b60025481565b60008054906101000a900473ffffffffffffffffffffffffffffffffffffffff1673ffffffffffffffffffffffffffffffffffffffff163373ffffffffffffffffffffffffffffffffffffffff1603610559576040517f08c379a00000000000000000000000000000000000000000000000000000000081526004016105509061092d565b60405180910390fd5b6000340361059c576040517f08c379a000000000000000000000000000000000000000000000000000000000815260040161059390610b13565b60405180910390fd5b600073ffffffffffffffffffffffffffffffffffffffff163373ffffffffffffffffffffffffffffffffffffffff160361060b576040517f08c379a000000000000000000000000000000000000000000000000000000000815260040161060290610b7f565b60405180910390fd5b6000600654036106a6573460068190555033600560006101000a81548173ffffffffffffffffffffffffffffffffffffffff021916908373ffffffffffffffffffffffffffffffffffffffff16021790555034600760003373ffffffffffffffffffffffffffffffffffffffff1673ffffffffffffffffffffffffffffffffffffffff168152602001908152602001600020819055506107d5565b600034600760003373ffffffffffffffffffffffffffffffffffffffff1673ffffffffffffffffffffffffffffffffffffffff168152602001908152602001600020546106f39190610bce565b90506002546006546107059190610bce565b811015610747576040517f08c379a000000000000000000000000000000000000000000000000000000000815260040161073e90610c74565b60405180910390fd5b8060068190555033600560006101000a81548173ffffffffffffffffffffffffffffffffffffffff021916908373ffffffffffffffffffffffffffffffffffffffff16021790555080600760003373ffffffffffffffffffffffffffffffffffffffff1673ffffffffffffffffffffffffffffffffffffffff16815260200190815260200160002081905550505b7fda829a7f088516c020a90d5ffb36fe472e801d47560c5603be826e0a3cd4bc7d303360065460405161080a93929190610c94565b60405180910390a1565b60015481565b6000819050919050565b61082d8161081a565b82525050565b60006020820190506108486000830184610824565b92915050565b600073ffffffffffffffffffffffffffffffffffffffff82169050919050565b60006108798261084e565b9050919050565b6108898161086e565b82525050565b60006020820190506108a46000830184610880565b92915050565b600082825260208201905092915050565b7f436f6e7472616374206f776e65722043616e6e6f7420706572666f726d20746860008201527f697320616374696f6e0000000000000000000000000000000000000000000000602082015250565b60006109176029836108aa565b9150610922826108bb565b604082019050919050565b600060208201905081810360008301526109468161090a565b9050919050565b7f4f6e6c792074686520636f6e7472616374206f776e65722063616e207065726660008201527f6f726d207468697320616374696f6e0000000000000000000000000000000000602082015250565b60006109a9602f836108aa565b91506109b48261094d565b604082019050919050565b600060208201905081810360008301526109d88161099c565b9050919050565b7f41756374696f6e206973206e6f7420696e2070726f6772657373207965740000600082015250565b6000610a15601e836108aa565b9150610a20826109df565b602082019050919050565b60006020820190508181036000830152610a4481610a08565b9050919050565b6000819050919050565b6000819050919050565b6000610a7a610a75610a7084610a4b565b610a55565b61081a565b9050919050565b610a8a81610a5f565b82525050565b6000606082019050610aa56000830186610880565b610ab26020830185610880565b610abf6040830184610a81565b949350505050565b7f43616e6e6f7420626520616e20656d7074792062696400000000000000000000600082015250565b6000610afd6016836108aa565b9150610b0882610ac7565b602082019050919050565b60006020820190508181036000830152610b2c81610af0565b9050919050565b7f4d7573742062652061206c65676974696d617465207573657200000000000000600082015250565b6000610b696019836108aa565b9150610b7482610b33565b602082019050919050565b60006020820190508181036000830152610b9881610b5c565b9050919050565b7f4e487b7100000000000000000000000000000000000000000000000000000000600052601160045260246000fd5b6000610bd98261081a565b9150610be48361081a565b9250828201905080821115610bfc57610bfb610b9f565b5b92915050565b7f42696420616d6f756e74206d7573742062652067726561746572207468616e2060008201527f63757272656e7420616d6f756e74202b20737465700000000000000000000000602082015250565b6000610c5e6035836108aa565b9150610c6982610c02565b604082019050919050565b60006020820190508181036000830152610c8d81610c51565b9050919050565b6000606082019050610ca96000830186610880565b610cb66020830185610880565b610cc36040830184610824565b94935050505056fea2646970667358221220f03dc29aa5fc205872e57dd222f9c73647a72005f97665d40607e68754b0263c64736f6c63430008130033",
  "immutableReferences": {},
  "source": "// SPDX-License-Identifier: MIT\r\npragma solidity ^0.8.19;\r\n\r\ncontract Auction {\r\n\r\n    // Contract consctructor variables\r\n    // ** option to cancel the auction\r\n    // ** option for BuyNow\r\n    // ** option to withdraw the bid\r\n    // ** option to use auction commision\r\n\r\n\taddress public owner;\r\n\tuint public startPrice;\r\n\tuint public step;\r\n\tuint public startTime; \t\t// all dates must come in UTC\r\n\tuint public endTime;\t\t// all dates must come in UTC\r\n\r\n\t// Contract state variables\r\n\t//bool public started;\r\n\t// bool public cancelled;\r\n\r\n\taddress highestBidder;\r\n\tuint highestBid = 0;\r\n \r\n\tmapping(address=>uint) activeBids;  // <=== Need to figure why I need this\r\n\r\n\t// Events\r\n\tevent bidPlaced(address auction, address bidder, uint bid);\r\n\tevent bidCancelled(address auction, address bidder, uint bid);\r\n\tevent auctionCancelled(address auction);\r\n\tevent auctionFinished(address auction);\r\n\tevent fundsWithdrawn();\r\n\r\n\tconstructor(address _owner, uint _price, uint _step, uint _startTime, uint _endTime){\r\n\r\n\t\t//!! add check for dates\r\n\t\towner = _owner;\r\n\t\tstartPrice = _price;\r\n\t\tstep = _step;\r\n\r\n\t\tstartTime = _startTime;\t\t// block.timestamp;\r\n\t\tendTime = _endTime;\t\t\t// block.timestamp+50000;\r\n\t}\r\n\r\n\tfunction placeBid() public notOwner payable { // <<=== return auctionInProgress modifier\r\n\t\r\n\t\t// Check current bid\r\n\t\trequire(msg.value != 0, \"Cannot be an empty bid\");\r\n\t\trequire(msg.sender != address(0), \"Must be a legitimate user\");\t\r\n\r\n\t\t// If highestBid is still 0, its the first bid\r\n\t\tif(highestBid == 0){\r\n\t\t\thighestBid = msg.value;\t\t\r\n\t\t\thighestBidder = msg.sender;\r\n\t\t\tactiveBids[msg.sender] = msg.value;\r\n\t\t}else{\r\n\t\t\t// Calculate amount new bid amount\r\n\t\t\tuint bid = activeBids[msg.sender] + msg.value;\r\n\t\t\trequire(bid >= (highestBid + step), \"Bid amount must be greater than current amount + step\");\r\n\t\t\thighestBid = bid;\r\n\t\t\thighestBidder = msg.sender;\r\n\t\t\tactiveBids[msg.sender] = bid;\r\n\t\t}\r\n\r\n\t\temit bidPlaced(address(this), msg.sender, highestBid);\r\n\r\n\t}\r\n\r\n\tfunction cancelBid() public notOwner auctionInProgress payable {\r\n\r\n\t\temit bidCancelled(address(this), msg.sender, 500);\t\r\n\t}\r\n\r\n\tfunction cancelAuction() public onlyOwner {\r\n\r\n\t\temit auctionCancelled(address(this));\r\n\t}\r\n\r\n\tfunction finishAuction() public{\r\n\r\n\t\temit auctionFinished(address(this)); \r\n\t}\r\n\r\n\r\n\tfunction withdrawFunds() public notOwner payable {\r\n\t\t// Only contract \r\n\t\temit fundsWithdrawn();\t\r\n\t}\r\n\r\n\r\n  \t//*** Modifiers\r\n  \tmodifier onlyOwner {\r\n        require(msg.sender == owner, \"Only the contract owner can perform this action\");\r\n        _; // \r\n    }\r\n  \t\r\n\r\n  \tmodifier notOwner {\r\n        require(msg.sender != owner, \"Contract owner Cannot perform this action\");\r\n        _; // \r\n    }\r\n\r\n    modifier auctionInProgress {\r\n    \trequire(startTime <= block.timestamp && endTime >= block.timestamp, \r\n    \t\t\"Auction is not in progress yet\");\r\n        _; // \r\n    }\r\n\r\n}\r\n",
  "sourcePath": "C:\\Projects\\University Project\\Blockchain-based-online-auction\\backend\\smart-contracts\\contracts\\Auction.sol",
  "compiler": {
    "name": "solc",
    "version": "0.8.19+commit.7dd6d404.Emscripten.clang"
  },
  "schemaVersion": "3.4.13",
  "updatedAt": "2023-03-29T04:03:27.594Z",
  "devdoc": {
    "kind": "dev",
    "methods": {},
    "version": 1
  },
  "userdoc": {
    "kind": "user",
    "methods": {},
    "version": 1
  }
}