{
  "contractName": "FairAuctionMainContract",
  "abi": [
    {
      "anonymous": false,
      "inputs": [
        {
          "indexed": false,
          "internalType": "address",
          "name": "auctionAddress",
          "type": "address"
        },
        {
          "indexed": false,
          "internalType": "address",
          "name": "owner",
          "type": "address"
        }
      ],
      "name": "auctionCreated",
      "type": "event"
    },
    {
      "inputs": [
        {
          "internalType": "uint256",
          "name": "",
          "type": "uint256"
        }
      ],
      "name": "auctions",
      "outputs": [
        {
          "internalType": "contract Auction",
          "name": "",
          "type": "address"
        }
      ],
      "stateMutability": "view",
      "type": "function",
      "constant": true
    },
    {
      "inputs": [
        {
          "internalType": "uint256",
          "name": "_price",
          "type": "uint256"
        },
        {
          "internalType": "uint256",
          "name": "_step",
          "type": "uint256"
        },
        {
          "internalType": "uint256",
          "name": "_startTime",
          "type": "uint256"
        },
        {
          "internalType": "uint256",
          "name": "_endTime",
          "type": "uint256"
        }
      ],
      "name": "createAuction",
      "outputs": [
        {
          "internalType": "address",
          "name": "",
          "type": "address"
        }
      ],
      "stateMutability": "nonpayable",
      "type": "function"
    },
    {
      "inputs": [],
      "name": "getAuctions",
      "outputs": [
        {
          "internalType": "contract Auction[]",
          "name": "",
          "type": "address[]"
        }
      ],
      "stateMutability": "view",
      "type": "function",
      "constant": true
    }
  ],
  "bytecode": "0x608060405234801561001057600080fd5b5061159a806100206000396000f3fe608060405234801561001057600080fd5b50600436106100415760003560e01c8063431f21da14610046578063571a26a014610076578063d7c06919146100a6575b600080fd5b610060600480360381019061005b9190610331565b6100c4565b60405161006d91906103d9565b60405180910390f35b610090600480360381019061008b91906103f4565b61021c565b60405161009d9190610480565b60405180910390f35b6100ae61025b565b6040516100bb9190610559565b60405180910390f35b60008033868686866040516100d8906102e9565b6100e695949392919061058a565b604051809103906000f080158015610102573d6000803e3d6000fd5b509050600073ffffffffffffffffffffffffffffffffffffffff168173ffffffffffffffffffffffffffffffffffffffff1603610174576040517f08c379a000000000000000000000000000000000000000000000000000000000815260040161016b9061063a565b60405180910390fd5b6000819080600181540180825580915050600190039060005260206000200160009091909190916101000a81548173ffffffffffffffffffffffffffffffffffffffff021916908373ffffffffffffffffffffffffffffffffffffffff1602179055507fa076c5d4e070ff3cce2430da7750263ede23a1238807604ceaa682589e306ede813360405161020892919061065a565b60405180910390a180915050949350505050565b6000818154811061022c57600080fd5b906000526020600020016000915054906101000a900473ffffffffffffffffffffffffffffffffffffffff1681565b606060008054806020026020016040519081016040528092919081815260200182805480156102df57602002820191906000526020600020905b8160009054906101000a900473ffffffffffffffffffffffffffffffffffffffff1673ffffffffffffffffffffffffffffffffffffffff1681526020019060010190808311610295575b5050505050905090565b610ee18061068483390190565b600080fd5b6000819050919050565b61030e816102fb565b811461031957600080fd5b50565b60008135905061032b81610305565b92915050565b6000806000806080858703121561034b5761034a6102f6565b5b60006103598782880161031c565b945050602061036a8782880161031c565b935050604061037b8782880161031c565b925050606061038c8782880161031c565b91505092959194509250565b600073ffffffffffffffffffffffffffffffffffffffff82169050919050565b60006103c382610398565b9050919050565b6103d3816103b8565b82525050565b60006020820190506103ee60008301846103ca565b92915050565b60006020828403121561040a576104096102f6565b5b60006104188482850161031c565b91505092915050565b6000819050919050565b600061044661044161043c84610398565b610421565b610398565b9050919050565b60006104588261042b565b9050919050565b600061046a8261044d565b9050919050565b61047a8161045f565b82525050565b60006020820190506104956000830184610471565b92915050565b600081519050919050565b600082825260208201905092915050565b6000819050602082019050919050565b6104d08161045f565b82525050565b60006104e283836104c7565b60208301905092915050565b6000602082019050919050565b60006105068261049b565b61051081856104a6565b935061051b836104b7565b8060005b8381101561054c57815161053388826104d6565b975061053e836104ee565b92505060018101905061051f565b5085935050505092915050565b6000602082019050818103600083015261057381846104fb565b905092915050565b610584816102fb565b82525050565b600060a08201905061059f60008301886103ca565b6105ac602083018761057b565b6105b9604083018661057b565b6105c6606083018561057b565b6105d3608083018461057b565b9695505050505050565b600082825260208201905092915050565b7f4661696c656420746f206372656174652061756374696f6e0000000000000000600082015250565b60006106246018836105dd565b915061062f826105ee565b602082019050919050565b6000602082019050818103600083015261065381610617565b9050919050565b600060408201905061066f60008301856103ca565b61067c60208301846103ca565b939250505056fe608060405260006006553480156200001657600080fd5b5060405162000ee138038062000ee183398181016040528101906200003c919062000148565b846000806101000a81548173ffffffffffffffffffffffffffffffffffffffff021916908373ffffffffffffffffffffffffffffffffffffffff160217905550836001819055508260028190555081600381905550806004819055505050505050620001d0565b600080fd5b600073ffffffffffffffffffffffffffffffffffffffff82169050919050565b6000620000d582620000a8565b9050919050565b620000e781620000c8565b8114620000f357600080fd5b50565b6000815190506200010781620000dc565b92915050565b6000819050919050565b62000122816200010d565b81146200012e57600080fd5b50565b600081519050620001428162000117565b92915050565b600080600080600060a08688031215620001675762000166620000a3565b5b60006200017788828901620000f6565b95505060206200018a8882890162000131565b94505060406200019d8882890162000131565b9350506060620001b08882890162000131565b9250506080620001c38882890162000131565b9150509295509295909350565b610d0180620001e06000396000f3fe6080604052600436106100915760003560e01c80638fa8b790116100595780638fa8b790146101385780639435c8871461014f578063e25fe17514610159578063ecfc7ecc14610184578063f1a9af891461018e57610091565b806324600fc3146100965780633197cbb6146100a0578063430ca46f146100cb57806378e97925146100e25780638da5cb5b1461010d575b600080fd5b61009e6101b9565b005b3480156100ac57600080fd5b506100b5610275565b6040516100c29190610833565b60405180910390f35b3480156100d757600080fd5b506100e061027b565b005b3480156100ee57600080fd5b506100f76102b4565b6040516101049190610833565b60405180910390f35b34801561011957600080fd5b506101226102ba565b60405161012f919061088f565b60405180910390f35b34801561014457600080fd5b5061014d6102de565b005b6101576103a5565b005b34801561016557600080fd5b5061016e6104c5565b60405161017b9190610833565b60405180910390f35b61018c6104cb565b005b34801561019a57600080fd5b506101a3610814565b6040516101b09190610833565b60405180910390f35b60008054906101000a900473ffffffffffffffffffffffffffffffffffffffff1673ffffffffffffffffffffffffffffffffffffffff163373ffffffffffffffffffffffffffffffffffffffff1603610247576040517f08c379a000000000000000000000000000000000000000000000000000000000815260040161023e9061092d565b60405180910390fd5b7fac307fcf0669925bf80ff21893fd609acb84da6cd118aac5e2740fc70a61eb7060405160405180910390a1565b60045481565b7ff5567932da1d7ea737321c4e64abc5854e2cc406002c6a0ef015ba2c7edfc82d306040516102aa919061088f565b60405180910390a1565b60035481565b60008054906101000a900473ffffffffffffffffffffffffffffffffffffffff1681565b60008054906101000a900473ffffffffffffffffffffffffffffffffffffffff1673ffffffffffffffffffffffffffffffffffffffff163373ffffffffffffffffffffffffffffffffffffffff161461036c576040517f08c379a0000000000000000000000000000000000000000000000000000000008152600401610363906109bf565b60405180910390fd5b7f8d6c47ce91ee99a969888deaa147824dbe04b0d980a383763090f077a00b20873060405161039b919061088f565b60405180910390a1565b60008054906101000a900473ffffffffffffffffffffffffffffffffffffffff1673ffffffffffffffffffffffffffffffffffffffff163373ffffffffffffffffffffffffffffffffffffffff1603610433576040517f08c379a000000000000000000000000000000000000000000000000000000000815260040161042a9061092d565b60405180910390fd5b426003541115801561044757504260045410155b610486576040517f08c379a000000000000000000000000000000000000000000000000000000000815260040161047d90610a2b565b60405180910390fd5b7fb648250c1bc432c4698eec3454f94c276795897e5be0a2845d782c1cc91bbef430336101f46040516104bb93929190610a90565b60405180910390a1565b60025481565b60008054906101000a900473ffffffffffffffffffffffffffffffffffffffff1673ffffffffffffffffffffffffffffffffffffffff163373ffffffffffffffffffffffffffffffffffffffff1603610559576040517f08c379a00000000000000000000000000000000000000000000000000000000081526004016105509061092d565b60405180910390fd5b6000340361059c576040517f08c379a000000000000000000000000000000000000000000000000000000000815260040161059390610b13565b60405180910390fd5b600073ffffffffffffffffffffffffffffffffffffffff163373ffffffffffffffffffffffffffffffffffffffff160361060b576040517f08c379a000000000000000000000000000000000000000000000000000000000815260040161060290610b7f565b60405180910390fd5b6000600654036106a6573460068190555033600560006101000a81548173ffffffffffffffffffffffffffffffffffffffff021916908373ffffffffffffffffffffffffffffffffffffffff16021790555034600760003373ffffffffffffffffffffffffffffffffffffffff1673ffffffffffffffffffffffffffffffffffffffff168152602001908152602001600020819055506107d5565b600034600760003373ffffffffffffffffffffffffffffffffffffffff1673ffffffffffffffffffffffffffffffffffffffff168152602001908152602001600020546106f39190610bce565b90506002546006546107059190610bce565b811015610747576040517f08c379a000000000000000000000000000000000000000000000000000000000815260040161073e90610c74565b60405180910390fd5b8060068190555033600560006101000a81548173ffffffffffffffffffffffffffffffffffffffff021916908373ffffffffffffffffffffffffffffffffffffffff16021790555080600760003373ffffffffffffffffffffffffffffffffffffffff1673ffffffffffffffffffffffffffffffffffffffff16815260200190815260200160002081905550505b7fda829a7f088516c020a90d5ffb36fe472e801d47560c5603be826e0a3cd4bc7d303360065460405161080a93929190610c94565b60405180910390a1565b60015481565b6000819050919050565b61082d8161081a565b82525050565b60006020820190506108486000830184610824565b92915050565b600073ffffffffffffffffffffffffffffffffffffffff82169050919050565b60006108798261084e565b9050919050565b6108898161086e565b82525050565b60006020820190506108a46000830184610880565b92915050565b600082825260208201905092915050565b7f436f6e7472616374206f776e65722043616e6e6f7420706572666f726d20746860008201527f697320616374696f6e0000000000000000000000000000000000000000000000602082015250565b60006109176029836108aa565b9150610922826108bb565b604082019050919050565b600060208201905081810360008301526109468161090a565b9050919050565b7f4f6e6c792074686520636f6e7472616374206f776e65722063616e207065726660008201527f6f726d207468697320616374696f6e0000000000000000000000000000000000602082015250565b60006109a9602f836108aa565b91506109b48261094d565b604082019050919050565b600060208201905081810360008301526109d88161099c565b9050919050565b7f41756374696f6e206973206e6f7420696e2070726f6772657373207965740000600082015250565b6000610a15601e836108aa565b9150610a20826109df565b602082019050919050565b60006020820190508181036000830152610a4481610a08565b9050919050565b6000819050919050565b6000819050919050565b6000610a7a610a75610a7084610a4b565b610a55565b61081a565b9050919050565b610a8a81610a5f565b82525050565b6000606082019050610aa56000830186610880565b610ab26020830185610880565b610abf6040830184610a81565b949350505050565b7f43616e6e6f7420626520616e20656d7074792062696400000000000000000000600082015250565b6000610afd6016836108aa565b9150610b0882610ac7565b602082019050919050565b60006020820190508181036000830152610b2c81610af0565b9050919050565b7f4d7573742062652061206c65676974696d617465207573657200000000000000600082015250565b6000610b696019836108aa565b9150610b7482610b33565b602082019050919050565b60006020820190508181036000830152610b9881610b5c565b9050919050565b7f4e487b7100000000000000000000000000000000000000000000000000000000600052601160045260246000fd5b6000610bd98261081a565b9150610be48361081a565b9250828201905080821115610bfc57610bfb610b9f565b5b92915050565b7f42696420616d6f756e74206d7573742062652067726561746572207468616e2060008201527f63757272656e7420616d6f756e74202b20737465700000000000000000000000602082015250565b6000610c5e6035836108aa565b9150610c6982610c02565b604082019050919050565b60006020820190508181036000830152610c8d81610c51565b9050919050565b6000606082019050610ca96000830186610880565b610cb66020830185610880565b610cc36040830184610824565b94935050505056fea2646970667358221220f03dc29aa5fc205872e57dd222f9c73647a72005f97665d40607e68754b0263c64736f6c63430008130033a2646970667358221220355c71969099b9c6ced898a2bbb2a3a336e824ed8151f13604550cf797b2f36764736f6c63430008130033",
  "immutableReferences": {},
  "source": "// SPDX-License-Identifier: MIT\r\npragma solidity ^0.8.19;\r\n\r\nimport \"./Auction.sol\";\r\n\r\n// The contract will serve as an entry point. It is\r\n// - deployed on the startup.\r\n// - responsible for creating auctions\r\n// - responsible for adding auctions to auction array\r\n\r\ncontract FairAuctionMainContract {\r\n\r\n\tAuction[] public auctions;\r\n\tevent auctionCreated(address auctionAddress, address owner);\r\n\r\n\tfunction createAuction(uint _price, uint _step, uint _startTime, uint _endTime) external returns(address) {\r\n\r\n\t\tAuction a = new Auction(msg.sender, _price, _step, _startTime, _endTime);\r\n\t\trequire(address(a) != address(0), \"Failed to create auction\");\r\n\t\tauctions.push(a);\r\n\t\temit auctionCreated(address(a), msg.sender);\r\n\t\treturn address(a);\r\n\t}\r\n\r\n\r\n\tfunction getAuctions() public view returns (Auction[] memory){\r\n\t\treturn auctions;\r\n\t}\r\n\r\n}\r\n\r\n// We need to have ability to:\r\n// 1. Get all running contracts\r\n// 2. Get info about any given auction (address)\r\n// 3. Get info about all auctions an address participating",
  "sourcePath": "C:\\Projects\\University Project\\Blockchain-based-online-auction\\backend\\smart-contracts\\contracts\\FairAuctionMainContract.sol",
  "compiler": {
    "name": "solc",
    "version": "0.8.19+commit.7dd6d404.Emscripten.clang"
  },
  "schemaVersion": "3.4.13",
  "updatedAt": "2023-03-29T04:03:37.022Z",
  "networkType": "ethereum",
  "devdoc": {
    "kind": "dev",
    "methods": {},
    "version": 1
  },
  "userdoc": {
    "kind": "user",
    "methods": {},
    "version": 1
  }
}